:020000021000EC
:10800000004000203D000200790002007B000200D9
:108010000000000000000000000000000000000060
:108020000000000000000000000000007D000200D1
:1080300000000000000000007F000200810002003C
:108040008300020091AB010049FD010083000200A2
:1080500083000200000000003DFE010083000200DA
:1080600083000200B1F80100ADFD010083000200B1
:1080700083000200830002008300020083000200EC
:1080800083000200830002008300020083000200DC
:108090008300020009F30100E5F201008300020001
:1080A00083000200830002000000000000000000C6
:1080B00000000000000000000000000000000000C0
:1080C00010B5064C2378002B07D1054B002B02D0AE
:1080D000044800E000BF0123237010BD20220020CF
:1080E00000000000C4A30200044B10B5002B03D015
:1080F0000349044800E000BF10BDC0460000000076
:1081000024220020C4A30200164B002B00D1144BE4
:108110009D46402292029A1A924600218B460F46B3
:108120001348144A121A10F0BCFE0F4B002B00D05B
:1081300098470E4B002B00D09847002000210400E8
:108140000D000D48002802D00C4800E000BF0CF0E4
:10815000A7FA2000290010F02AFC0CF08BFAC04688
:1081600000000800004000200000000000000000A7
:1081700018220020882A00200000000000000000D3
:108180007FB5074905A800F097FFC82205A952004E
:10819000044802F07FF905A80DF003FA07B000BD0E
:1081A000509D0200282300207FB5074905A800F054
:1081B00083FFC82205A95200044802F06BF905A804
:1081C0000DF0EFF907B000BD569D020028230020F6
:1081D00010B50400034B036040300DF0E2F92000BD
:1081E00010BDC04638910200F0B585B01F000AAB43
:1081F0001B880600029115000393002F1CD0282035
:1082000000F04EFE6B4604001989039BAAB200934E
:108210003B000DF065F9336821005B68300098473A
:1082200000280AD0002C05D020000DF070F92000A5
:1082300000F056FE024800E0024805B0F0BDC0461E
:1082400016FCFFFF17FCFFFF30B5102585B0124864
:1082500000F036F9114903A800F02EFF782203A997
:108260000F4802F0A7F903A80DF09BF90D4C0E4B37
:108270000322012120000095FFF7B6FF20000095A2
:108280000A4B03220221FA24FFF7AEFF640020000C
:1082900000F0C4FCFBE7C0463C2200205F9D0200CA
:1082A000282300200C23002081810100A9810100E6
:1082B00010B5054C200000F043F8044A04492000A2
:1082C00010F08FFD10BDC0463C2200200020002091
:1082D000D5820100EB23194A9B0010B5C2501C3314
:1082E0000400C0180DF05DF9F1239B00E0180DF0BB
:1082F00058F984239B00E01801F046FA2000C530AD
:10830000FF3000F065FF20008D30FF3001F002FAF1
:1083100020006530FF3001F0FDF92000EC3001F065
:10832000D5FE2000D03002F0ABFA2000643007F018
:108330001DF9201DFFF74CFF200010BD34930200F3
:108340001423F0B5040095B00093192218210430CD
:1083500002F06EFC220027006432B43713211000B3
:10836000119207F00FF938000EF0C2F82200B8326F
:1083700010921E21002210980DF071FD2000D030C7
:1083800002F09EFA2200EC3212920621494A12981B
:1083900001F0C0FE20000026012365301A0000967F
:1083A0001121FF3001F0C2F920008D300096012329
:1083B00002221A21FF3001F0B9F925002000C5354D
:1083C000B530FF351A2302220121FF3002F036FBBF
:1083D000109904233A22280000F0AAFF8422920078
:1083E000A218139205231D22019300923B002A003C
:1083F0001099139801F0BEFB96229200129BA018D0
:1084000013992A0001F090FD99229200A0183900DA
:108410001C2202F039FD19239F220F93013B0E937A
:10842000013B0D93013B0C93013B0B93013B0A93E2
:10843000013B0993013B0893013B0793013B0693E2
:10844000013B0593013B0493013B0393013B0293E2
:10845000013B01939200013BA01800930822013BCD
:1084600007210DF004FDEB239B00E018390003F019
:10847000ABF8F3239B00E0181D2102F025FBFD2340
:108480009B00E65011982670032110F0C0F92300DC
:108490002200200008499C33A0321C601160566005
:1084A000064A80305A610221012207F079FD20003E
:1084B00015B0F0BD40910200F1510200DB51020005
:1084C0000123F0B5067889B004001E4000D0ADE06D
:1084D000FD20800500F0ACFC2300D033180002938F
:1084E00000F080FA00F0A6F9282000F0D9FC050081
:1084F00010300DF0E7F84E4B18202B6000F0D0FC48
:1085000007004C4B0460082231000C30069307969C
:1085100010F0C7FC06A9381D082210F0A6FC464B37
:1085200029007B611223AF60EE60AB802E626E6229
:10853000029802F03DF9002805D028000CF0E7FF72
:10854000280000F0CDFC012322786420134323701F
:1085500000F064FB002523006533FF33180003930C
:108560000DF05BFA00283CD020008D30FF300DF07C
:1085700054FA002835D00A2D33D06420013500F09C
:108580004DFB0A2DE7D12D492D4800F027FCFD2792
:10859000EB23BF009B00E618E359002B1AD100F033
:1085A0005DF8010004A800F087FD05A80CF092FE1C
:1085B000012305AA04A900933000029B03F058F898
:1085C00005A80CF0EEFF04A80CF0EBFFED239B00D8
:1085D000E358E3512100039AEC31300003F0EEF947
:1085E000B9E7FD2515491648AD0000F0F7FB6659BF
:1085F000002E1BD100F032F8010004A800F05CFD51
:1086000005A80CF067FEEB239B00E01805AA029B6F
:1086100004A9009603F02CF805A80CF0C2FF04A8EA
:108620000CF0BFFFED239B00E358635109B0F0BD90
:10863000FD030000635202002352020000200020CC
:10864000001C0020BFF34F8F024B034ADA60BFF3D8
:108650004F8FFEE700ED00E00400FA05F0B58DB0A5
:1086600005AF19221549380010F0FFFB0022144B0A
:1086700005245A7180225205566E0122250001946C
:10868000029203930199300007F0E8FD0800029977
:1086900007F05EFD019B03996B430193029B361A21
:1086A0006B430293631E2C1B6C433C19225C1C1E03
:1086B000CA54E7D108000DB0F0BDC0469B9D020032
:1086C000B6290020F0B597B018220021060010A8A6
:1086D00010F0E7FB132110A810F0D8F9032110A81F
:1086E00010F0A3FA4C4B1B68002B00D10133DBB216
:1086F00002934A4A012300210BA807F08BFB484B49
:108700009E4200D9002672B6464B64211D68464B36
:1087100030000793052407F0A5FD6043503028186A
:1087200008900A21300007F09DFD0A2107F080FE25
:10873000614350316918099130000A2107F078FE31
:10874000802361430024503169189B010A910193F1
:10875000029B002B5DD0002500272E1F07AB9B1925
:108760000593032C03D1802300249B01019307ABC5
:108770005B592E4A03936300D31804930023190016
:1087800006205843049A16187678B4466246039E2B
:10879000B25C10269446049A105C6246064116426A
:1087A00002D00120984001430133092BE8D1C9438D
:1087B0001F4B059A090119401268039B934225D16A
:1087C000312F23DC00210BA810F001FBFA23159AAE
:1087D0001199DB00106801421BD0013B002BF9D13D
:1087E000019B01345B000193FA230137E4B25B0083
:1087F0009F42B6D10435102DAED1074B1B68002B1C
:10880000A6D0029F013FFBB20293A1E7019B19434F
:10881000D9E7FFF717FFC04638260020F0FF000019
:10882000E703000004200020EA9D0200B49D02003E
:10883000F01F0000F8B50023124C23600CF06BFD14
:10884000002808D0042120000CF061FD002801D090
:108850000D4B2360F8BD0122A12704250B4B0C49C9
:108860001A602268FF0048604E68002EFCD0DE5976
:108870001202013D3243002DF5D1226001225A60DF
:10888000E8E7C04634260020ED5EBC0B00D0004077
:10889000FCD000400B4B70B51C68002C10D0656DEF
:1088A00000F0C6FBA36C002901D1834206D820004A
:1088B0000CF064FD044920000CF04EFD2C00ECE7A8
:1088C00070BDC0464026002060260020F0B593B061
:1088D00007932A4B04AC1E68049005910692002E63
:1088E0004AD0274B258867881C6800230293002CF8
:1088F0002ED0636D23480393A36C9AB2A36C1B0C18
:1089000099B2854214D12048824211D1002B01D066
:10891000B9420BD1029B002B08D120000CF02EFD98
:108920001A4920000CF018FD01230293039CDEE796
:10893000002A01D09542F9D1002B01D0B942F5D1DE
:1089400020000CF01BFD114920000CF005FDEDE7A7
:108950000F4BEB18012B0FD910233A00009329007D
:108960000C4B08A80CF0BCFD336808A99B683000CC
:10897000984708A80CF0CBFD13B0F0BD3C260020B2
:108980006C260020FE030000FF030000602600208C
:1089900002FCFFFFCD88010010B572B60B4B1C68BE
:1089A000002C08D020000CF0E9FC0023E364084B05
:1089B0002000E36310BD62B65C2000F071FA5C2217
:1089C0000021040010F06DFAEFE7C0466426002095
:1089D00000400020024B1878012318407047C04621
:1089E000BC290020F7B50600FFF7F4FF051E33D1C0
:1089F0001A4C2660FFF7D0FF194B1A4918600CF08B
:108A0000ABFCFFF7C9FF184B1860184B4363184BBA
:108A10008363206800280ED0C027164E2A0033003A
:108A200015490097FFF7E0FB009733002A00134930
:108A30002068FFF7D9FB0C2000F032FA0023838076
:108A400083710F4B03600F4B836000F009FB012320
:108A50000D4A11780B431370F7BDC0463C26002029
:108A6000702600206026002068260020FC3F0020A1
:108A700043540200CD880100FF030000FE03000004
:108A80006091020095880100BC290020F7B506001E
:108A90000D0017000193002802D100242000FEBD24
:108AA0000029FAD0FFF778FF041EF6D0074B019A91
:108AB0004363066045608760054B002A00D0054B84
:108AC000A363054920000CF047FCE7E7FC3F0020CA
:108AD0000D5402002B54020060260020024B18683F
:108AE000434258417047C04660260020002310B51D
:108AF00004499C006258002A01D00133F9E7605014
:108B0000100010BD48260020002310B5044A99002B
:108B10008C58844201D00133F9E70020885010BD01
:108B20004826002010B50024084BA200D058002889
:108B300002D003685B6898470134062CF4D1044BDB
:108B40001B68002B00D120BF10BDC0464826002066
:108B500060260020F8B5FFF73DFF00281BD0294D07
:108B60002C68E36CDA0717D502263343E364042349
:108B7000254F3868C26C1343C364636BC3630CF046
:108B800023FC3868416C03F016FB2868C36C334241
:108B900001D003F04AFBF8BD1C4F1D4E3A68316806
:108BA000002A1ED129602A688A4208D11B0706D5EF
:108BB0002C60FFF7B7FF3B68002BFAD02B602968C9
:108BC0008C42E8D03368994214D1124B4B63124B5C
:108BD0008B6320000CF0F8FB2968626C4B6C200062
:108BE0000DE0206DB84203D1606D002800D0020076
:108BF0002A60D8E79C42ECD1002210004B6C03F0B5
:108C000099FAC8E77026002044260020602600203C
:108C100068260020FC3F00204354020070B5050088
:108C2000FFF7D8FE002803D128000FF0F2FF70BD37
:108C30000C4B1C68E36CDB0706D5FFF7ADFE0A4B57
:108C40001860002800D0040000F0F2F92D18A56487
:108C500020000CF093FB054920000CF07DFBFFF792
:108C600079FFE4E7702600204426002040260020FB
:108C7000F0B51E4B1E4F1C683B6885B00600039183
:108C8000002B30D0FFF7A6FE00282CD0E36CDB07CA
:108C90000ED5FFF781FE174B051E186008D00CF0AB
:108CA0006DFB154928000CF057FB2C00FFF752FF15
:108CB000039B20001B043343A3640CF05FFB2000E4
:108CC0000E490CF049FB0E4B0024F318012B07D979
:108CD000C0230093039A0B4B31003868FFF784FAE6
:108CE000200005B0F0BD084CFAE7C0467026002011
:108CF0003C26002044260020602600206C26002010
:108D000002FCFFFFCD88010016FCFFFF10B5FFF746
:108D100061FE002809D0054C20680CF02FFB0449A7
:108D200020680CF019FBFFF715FF10BD702600201E
:108D300064260020F7B507000D0000282ED0FFF7AD
:108D400049FE00282CD00724164E3068C36C1C4006
:108D500007D0154A290038000CF027FB002420001A
:108D6000FEBD03F04AFA02213268D36C194001912A
:108D700003D003218B43D364F1E701242343D3645D
:108D80002800B8473268D36C1900A143D164019C14
:108D90005B07E4D528000CF040FBE0E7034CDEE77E
:108DA000034CDCE7702600201B54020017FCFFFF79
:108DB00016FCFFFF020010B5014B12CB12C210BD12
:108DC00074260020034B1A68034B1A607E225A60F7
:108DD0007047C046042000207426002070B5104D56
:108DE0002B78022B18D0814218D90B1A072B15D9D2
:108DF0000C00032304431C4010D172B62A78094B9F
:108E0000D200D050981841600CF021FB2B78013330
:108E10002B7062B6200070BD0348FCE70348FAE7F8
:108E2000BD2900207C26002013FCFFFF17FCFFFF5C
:108E300070B50021041C07F01DFB002828D1FE217D
:108E4000201C890507F020FB002821D104300BF0FD
:108E50004BFC05000F48401B08F0F6FA211C07F0F8
:108E600093FF07F045FB03239843040028000BF011
:108E700045FC20000BF038FC002804D1203C002CDD
:108E8000F7D1054803E00119FFF7A8FF002070BDE6
:108E90000248FCE70038002013FCFFFF17FCFFFF2F
:108EA00070B5060000250C4B1B78AB4209DD0B4961
:108EB000EB00C91830000CF0D2FA041E09D10135BC
:108EC000F1E730000BF010FC041E02D11420FFF774
:108ED000F9FB200070BDC046BD2900207C26002083
:108EE00070B5002813D00D4B0D491C7800239C420F
:108EF00010DDDA00555885420AD28A18526882423B
:108F000006D98023043802681B061343036070BD32
:108F10000133ECE70BF0F2FBF9E7C046BD29002076
:108F20007C26002070B5051E14DD0B4E0B4C3368FB
:108F3000002B02D020680FF0E7FCFA212068002403
:108F4000074B89008361C462694335600FF0E4FC1C
:108F5000200070BD0348FCE78C260020BC260020C2
:108F60000D90010017FCFFFFF8B5114F06003D689A
:108F7000002D0AD13020FFF793FF040006F026FBF6
:108F80000C4BA5612360E5623C600B4D2B68002B08
:108F900009D11020FFF784FF04000FF07EFC2000B1
:108FA0002C600FF054FC3000FFF7BCFFF8BDC0464A
:108FB000BC260020D8960200B8260020014B186875
:108FC0007047C0468C26002070B50D4C2368002BDE
:108FD00003D00C4B1B68002B02D10620FFF7C4FF07
:108FE00020680FF04BFC02000749C3170D684E685C
:108FF0005219734120680A604B600FF045FC70BD48
:10900000B8260020BC2600201822002010B5FFF74B
:10901000DBFF0024054BA200D058002802D00368D3
:109020001B68984701340A2CF4D110BD902600200B
:1090300010B5FFF7C9FFFA22034B92001868596870
:10904000002307F035FA10BD1822002010B5FFF7F5
:10905000BBFF024B1868596810BDC046182200209B
:109060000B4B10B51B680400002B03D0094B1B6889
:10907000002B02D10620FFF777FF0023064A990054
:109080008858002801D00133F9E78C5010BDC04644
:10909000B8260020BC26002090260020002310B512
:1090A000044A99008C58844201D00133F9E700202A
:1090B000885010BD9026002010B50400002902D071
:1090C0000B78002B03D1034B2360200010BD0CF064
:1090D0006FFAFAE770910200F8B504000E0015006F
:1090E00000290AD00B78002B07D0002A05D00800F1
:1090F00097B20FF016FF874203D90B4B2360200075
:10910000F8BD681DFFF7CCFE20600CF033FB236830
:109110002A005F8023683100181D0FF0A6FE236827
:109120005D1900232B71EAE770910200014B036087
:109130007047C0467091020010B50548054C20608C
:109140000CF01BFB044A054920000FF04AFE10BD3D
:1091500070910200C026002000200020A3550200CC
:10916000084B73B51C680500002C0AD00100266866
:109170000831082268460FF078FE0CCD31682000D7
:10918000884773BDC426002010B5054C012120007E
:109190000CF0E7FA034A044920000FF022FE10BD4C
:1091A000C8260020002000201F5702000388074A1D
:1091B00010B50120934208D0834202D00020DB0783
:1091C00003D41E20FFF77EFA002010BDFFFF000031
:1091D00010B50400034B08330360FFF795FC200033
:1091E00010BDC046B8910200FA2270B543899200C2
:1091F0005343314A31491400050038348B421BDC9B
:109200002F498B4218D82F49083C8B4214D82E493D
:10921000083C8B4210D82D49083C8B420CD82C4975
:10922000083C8B4208D82B49083C8B4204D82A4979
:1092300014008B4200D90834284B2A7B1E1D042AB7
:1092400003D89E1C022A00D81E00FA21206889003B
:1092500006F07EFF337868812B7300222A212800D4
:109260000CF0AFFA002801D01D4870BD10222B2150
:1092700028000CF0A6FA0028F6D101222D212800A2
:109280000CF09FFA0028EFD101222E2128000CF0CB
:1092900098FA0028E8D172780E2128000CF091FA93
:1092A0000028E1D1012223792A211A4328000CF059
:1092B00088FA0028D9D0D7E77891020000C40900C5
:1092C0000071020080380100204E000010270000CD
:1092D00088130000C4090000E2040000CA9F0200D5
:1092E0000EFCFFFF7FB515000F226A4404001E002C
:1092F0001170002D16D0002B14DD0123018900937D
:10930000006B01F0D1F9002802D0074804B070BD0D
:109310000090218933002A00206B01F07BF900289E
:10932000F4D0F2E70148F1E70EFCFFFF17FCFFFF66
:10933000F7B50600002501931E4B143608330400D0
:10934000036085808571C581058245820F0000928A
:109350002900182230000FF0A4FD1C2130000FF06E
:1093600095FB6B469B880221A3806B461B882200DD
:1093700023811423A5712173A563A58763813E32E0
:10938000137827638B43F1310B40137023009572E0
:1093900095810135221DD5870833A21DD587200070
:1093A000DD87FFF721FF002802D1A3791D43A571B6
:1093B0002000FEBDB891020030B50425837987B046
:1093C00004002B4204D1FFF791FBA3791D43A57143
:1093D000A36AA2691B6800251A4208D106236A46BF
:1093E00001212000FFF77EFF051E03D0114D28004C
:1093F00007B030BD6B460222042069469A561856C3
:10940000237BD2005A43228202220978C00049B24B
:10941000C900594343436382A379E1819343A37114
:1094200020000CF0DCF90123A1881A0002A80CF03E
:1094300053F9DCE70EFCFFFFF8B50400FFF7BCFFB3
:109440000E22A35E794F5B42BB4251DA23003E33CA
:109450001B789B074CD50125210028003E310B7855
:109460005A08904302000220AA40834313430B7022
:109470002000FFF7A1FF1022A35E5B42BB4248DA47
:1094800023003E331B785B0743D5012521002800CC
:109490003E310B789A0890438200042083431343A3
:1094A0000B7026002000FFF787FF1222A35E4836CC
:1094B000BB423EDA23003E331B781B0739D521001F
:1094C00001223E310B78D80882430820D200834322
:1094D00013430B703378032B3BD80133DBB233706B
:1094E000012B00D08DE0230000224A331A8030E0A7
:1094F0002000FFF761FF0E22A35EC8225B425200EC
:1095000000259342B4DD23003E331B789B07A2D590
:10951000AEE72000FFF750FF1022A35EC8225B4297
:1095200052009342BDDD23003E331B785B07ACD570
:10953000B7E72000FFF740FFC8231221625E5B00FF
:109540009A4204DD23003E331B781B07B7D5002D5C
:10955000C0D13278002A14D02100270001254A31D9
:109560000B883E3701339BB20B803878AC46054000
:1095700055D01D2B05D963469843002338700B80C6
:10958000337020000CF097F9294A0723904244DDFC
:109590002000FFF711FF0E23E25E264E5242032306
:1095A000B2423ADBC8252000FFF706FF0E23E25E39
:1095B000AD0052420423AA422FDC2000FFF7FCFE3C
:1095C0001023E25E02235242B24226DB2000FFF764
:1095D000F3FE1023E25E01235242AA421DDC20006A
:1095E000FFF7EAFE1223E25E0523B24215DB2000FC
:1095F000FFF7E2FE1223E25E0623AA420DDC0023FF
:109600000BE0042BA5D122003E321178033B0B4323
:10961000137000234A3423800B331800F8BD092B44
:10962000AFD9013A0D803270ABE7C04670FEFFFF44
:10963000FF700200E0FCFFFF70B5C369C1681A68E3
:10964000451D8AB00400EB7F114255D0002B58D144
:10965000EB7F082B0DD90122A379134209D11343C3
:10966000A371A188130006A80CF036F8FFF7E0FC00
:109670002062EB7F012B23D80123A2791A421FD04D
:109680000025A188A571022202A80CF025F8A31DCF
:10969000DE7F012E14D1FFF7CBFC2B00226A801A4B
:1096A000994100900191019BA188AB4203D1174BD6
:1096B000009A9A4227D90123042206A80CF00CF83C
:1096C0000322A3791340012B14D1FFF7B1FC00232F
:1096D000226A801A9941994202D10D4B984209D9C8
:1096E0000223A279A1881343A3710522012306A8AE
:1096F0000BF0F2FF0AB070BD0B2BA9D80133EB774A
:10970000A6E7013BFBE733000322D6E7E7030000AF
:10971000DB05000010B50400034B08330360FFF7BE
:10972000BDFC200010BDC046D0910200F0B507007E
:1097300000250E0085B002930AAB1B78083703930F
:10974000104B040008330360019285808571290065
:10975000182238000FF0A5FB039A310038000FF0F3
:109760009AF96B466A469B88127AA380A31DE6711C
:10977000DA77631D25622000DD77FFF771FC20009A
:1097800005B0F0BDD091020010B50400034B0833C2
:109790000360FFF7B9F9200010BDC04640920200F7
:1097A0007FB515000F226A4404001E001170002DC1
:1097B00016D0002B14DD012301890093C06B00F04B
:1097C00073FF002802D0074804B070BD00902189C3
:1097D00033002A00E06B00F01DFF0028F4D0F2E710
:1097E0000148F1E70EFCFFFF17FCFFFF002330B537
:1097F00085B003AC2170018900930500013322007C
:10980000C06B00F051FF002802D0094805B030BD00
:1098100020802989009002232200E86B00F0FAFEE4
:109820000028F2D1237860781B02184300B2EDE7DC
:109830000EFCFFFF13B56B46DC1D002322002370D6
:109840000133FFF7ADFF002801D1207816BD014894
:10985000FCE7C0460EFCFFFFD0B504000CF005F994
:10986000E268A369981A09F03DFA06000F0023691F
:10987000E069C01A09F036FA32003B0009F080FDB9
:109880000022104B08F03EFC0F4A104B08F038F94C
:1098900009F0B4FA0021041C06F0E2FD002804D00F
:1098A000201C0B4906F0FEFE041C201C09F054FA93
:1098B00002000B000020074908F096FE09F0DCF9D1
:1098C000D0BDC04600806640EA2E4454FB210940CA
:1098D0000000B44300807640F0B5050085B0006C10
:1098E0000CF086F8061C286C0CF079F80221071C95
:1098F00028000CF0EBF80221039028000CF0F8F897
:1099000007F058FD0221041C28000CF003F907F0B1
:1099100051FD051C301C09F0F5FC0290301C09F0CB
:10992000B3FC0190381C09F0EDFC061C381C09F052
:10993000ABFC071C039807F03DFD391C07F024FA27
:10994000311C071C201C07F01FFA029907F01CFAB3
:10995000011C381C06F0A6FE311C071C281C07F051
:1099600013FA019907F010FA011C381C06F09AFE50
:109970000299061C281C07F007FA0199051C201CF7
:1099800007F002FA011C281C07F030FB311C09F01B
:10999000FBFC0D4907F0F8F909F0DEF90B4A0C4B16
:1099A00008F0AEF809F02AFA0021041C06F058FD70
:1099B000002804D0201C044906F074FE041C201C5E
:1099C00007F0D8FC05B0F0BD0000B443EA2E4454C3
:1099D000FB21194070B50022102104000CF037F86B
:1099E0001B4D00282DD1032608212000FFF722FF60
:1099F000A84226D0304226D1FA21638989005943F2
:109A00005023144AD518D058884204D3D518083B9F
:109A100018000830F7D1FA212868890006F098FB71
:109A2000A0226081112120000CF011F8002808D13B
:109A300001222B7910211A4320000CF008F800288D
:109A400000D0034870BD6420FFF7E8F8CCE7C046BB
:109A50000EFCFFFFE89102007FB504258379040026
:109A60002B4218D102260CF000F8A379A188B34349
:109A70002B43A3710622012368460BF02DFEA0792B
:109A800003003040AB43A37143425841034B404273
:109A9000184004B070BD0248FBE7C04614FCFFFF4D
:109AA00015FCFFFF10B5837904005A070DD49B07FE
:109AB00001D4FFF7D1FF236C2000002B02D0FFF769
:109AC0000BFF10BDFFF7C8FEFBE70148F9E7C046F2
:109AD00015FCFFFF70B5466C86B001AC0500019126
:109AE0006260A360002E0CD00B4905A8FFF7E4FAD2
:109AF0000C23220005A930000CF039FD05A80BF05D
:109B000050FD2B000C3307CC07C30223AA79134363
:109B1000AB7106B070BDC046D09F0200642330B563
:109B200004000281438185B08180FFF753FF022248
:109B3000A379606C9343A371002813D00C490CF0F7
:109B4000DDFC051E0ED001000C22103101A80FF023
:109B50008CF920000199029A039BFFF7BBFF2800B4
:109B6000FFF7BEF90123A2791343A37105B030BDFD
:109B7000D09F0200F7B5009308AB1B880400019347
:109B800009AB1D8800230F0016000D4A83800832A0
:109B900083710260C360036143618361C3610362D7
:109BA0001D2124300BF046FF009BE763266429004B
:109BB00020006364019AFFF7B1FF2000FEBDC0469C
:109BC0004092020082B0F0B50400A5B064202B934F
:109BD0002A920FF01EF804220C2109A802F086FB3D
:109BE0002422CC491BA80FF040F9052206A8110039
:109BF0000DF08BFDC84907A802F024FCA06800F016
:109C000081FBA568C54918A8FFF756FA782218A95C
:109C1000280000F0A5FC18A80BF0C3FC6E256420FA
:109C2000013D0EF0F6FF002DF9D1A06800F06AFBAF
:109C3000A0680CF00FF9012160680BF050FE0121C3
:109C4000070060680BF05EFE06000A200EF0E1FFE0
:109C50000022B34B03929F4210DB013203923A0081
:109C6000C8320BDBC822042192000391974205DC25
:109C700003220392C82F01DC013A039200279E427F
:109C80000CDB33000137C83308DBC82303379B00E4
:109C90009E4203DC013FC82E00DC013F06A80DF008
:109CA0002BFD0026032373431BA9CA1890780028B4
:109CB00005D0C95C5278FF2306A802F057FB013695
:109CC0000C2EEFD16B463AB20C21595E06A8FF2349
:109CD00002F04CFB0023A06800931A00743006A920
:109CE0000DF01AFD002304930323049A03985343B1
:109CF0001BAA995C814237D1D31805935B78BB428C
:109D000032D1059B9E78002E2ED1310020680BF0B9
:109D1000DDFE07F04FFB3200031C290009A80CF000
:109D2000AFFE310020680BF0E3FE07F043FB012299
:109D3000031C290009A80CF0A3FE310020680BF0D9
:109D4000E9FE07F037FB2900031C022209A80CF0EA
:109D500097FEFE2303229B05290009A80CF090FE24
:109D60000123059AED189370049B013304930C2B87
:109D7000BAD164200EF04DFF0B2D00DC5BE709A883
:109D80000CF06AFE012201000CA802F0AFFA0025D7
:109D900009A80CF061FEA8423CDD2900002209A8B8
:109DA0000CF05CFE0022061C290009A80CF056FEEF
:109DB000011C301C06F0E8FF2900061C012209A83E
:109DC0000CF04CFE0122071C290009A80CF046FEED
:109DD000011C381C06F0D8FF311C06F063FC29007A
:109DE000061C022209A80CF039FE02222900071CD9
:109DF00009A80CF033FE011C381C06F0C5FF311C0D
:109E000006F050FC2900031C00220CA80CF038FEC0
:109E10000135BDE709AA1100012318A80CF04AFE7C
:109E200018A90FA80CF0A3FE18A80CF03AFE0CAA73
:109E300009A912A801230CF03DFE002312AA0FA9C4
:109E400015A80CF037FE002215A811000CF006FE34
:109E50000022061C012115A80CF000FE0022051CA2
:109E6000022115A80CF0FAFDFC21071C8905301C05
:109E700006F08AFF07F07EFAFC210600189089059B
:109E8000281C06F081FF07F075FAFC2105001990E7
:109E90008905381C06F078FF07F06CFA2A000300E9
:109EA00031001A902068FFF715FEA0680BF0D2FF72
:109EB00007A908A8A5680DF017FC0022194B00920D
:109EC00008A901932800130000F0BAFA08A80DF0C1
:109ED000FEFBFA2080000EF09CFEA0680BF0BAFF9B
:109EE00015A80CF0DEFD12A80CF0DBFD0FA80CF09D
:109EF000D8FD0CA80CF0D5FD07A80DF0E8FB06A8CE
:109F00000DF0E5FB09A80CF0CCFD25B0F0BC08BCB9
:109F100002B01847DB9F0200FF9F020044A002002E
:109F2000E0FCFFFFDC050000F7B583601D4B05007A
:109F30001F6801604260002F31D02820FEF7B0FF7B
:109F4000040010300BF0BEFB174B18202360FEF707
:109F5000A7FF00220600154B019205600832002180
:109F60000C3000930EF09DFF08226946301D0EF064
:109F70007CFF0F4B00227361C223A3803B68E26029
:109F8000A660226262625B68210038009847002860
:109F900005D020000BF0BBFA2000FEF7A1FF28003F
:109FA000FEBDC046C426002005000600C59B01007A
:109FB0002D5B0200F0B5040085B0637A9C46002B4F
:109FC00004D120000BF0DDFD05B0F0BDA37A266FB3
:109FD00001931023019AF35600259B1801229A4001
:109FE0002900F36803920293029BAB4231DDB36810
:109FF000019A6B439B1872695B00E77AD3181A7851
:10A000005878E379012F14D15F1E3F1A10003A00EF
:10A010005B004343606F8218D3189B79634500DD72
:10A020006346627B1A4202D00123AB4019430135DB
:10A03000DAE7022F05D15F1EBA1A277A013F381AD4
:10A04000E6E7032FE4D1277A013FBF1A0200380068
:10A05000DEE71123C943F356606C99402369194028
:10A06000039B19430EF0B3FEA27B072AACD8637B97
:10A070000C495B006373531CDBB290004158A3731F
:10A08000022A03D808000EF0B9FD96E7064B20001F
:10A09000236300236363054BE462236414300EF0F2
:10A0A0003BFC91E758920200B59F01006D5B0200F6
:10A0B00010B50400044B03600EF026FC200005F0F0
:10A0C0009BFA200010BDC046D896020010B50400CF
:10A0D0000E4B08330360FEF7E1FF200074300DF0F3
:10A0E000F6FA200060300DF0F2FA200058300BF044
:10A0F00058FA200050300BF054FA2000044B143072
:10A100006361FFF7D5FF200010BDC04678920200C2
:10A110000C970200F8B500250400324B8580083307
:10A1200003608571143016000F0005F04FFA20000F
:10A130002D4BE562636125645030FEF7F7FF200088
:10A140005830FEF7F3FF2000603002F009F92000DC
:10A150000423F25E33682667590009B274300DF0AB
:10A16000D4FA3368226FE3717368012623721023D7
:10A170006581A7802561D35691685918994204DDFD
:10A180003000984001330543F8E711230120D356EE
:10A19000D1685918994206DD02009A4026690133B8
:10A1A00032432261F6E71420FEF77AFE226900218D
:10A1B0002A430123060005F02DFEFF2322006372CF
:10A1C0000133A381002348326664A3732000137017
:10A1D000A366FEF745FF0123A27920001343A37174
:10A1E000F8BDC046789202000C970200F0B5437AA1
:10A1F00085B00400002B04D120000BF0C2FC05B098
:10A20000F0BD0122837A11009C461023066F0025C1
:10A21000F35603926344994002912900F368019335
:10A22000019BAB422CDDB36872696B4363445B00F6
:10A23000E77AD3181A785878E379012F10D15F1E86
:10A240003F1A10003A005B004343606F8218D31836
:10A250009B79002B02D0039BAB4019430135DFE70C
:10A26000022F05D15F1EBA1A277A013F381AEAE792
:10A27000032FE8D1277A013FBF1A02003800E2E736
:10A280001123C943F356606C994023691940029B1E
:10A2900019430EF09CFD667AB31EDBB2FC2B14D87A
:10A2A000FEF78CFE0B4B0500236300230A48636313
:10A2B0000A4BFF21E4622364704305F0D3FF2900B9
:10A2C0004143200014300EF027FB637A012B00D9A4
:10A2D00095E791E7835B0200B60300006D5B020027
:10A2E0001FB5012381881A0068460BF0F5F9012398
:10A2F00003491A0068460BF0EFF905B000BDC046EF
:10A30000FE0300001FB5030048331A780400002A3A
:10A310000DD000221A70012381881A0068460BF0C4
:10A32000DBF9012304491A0068460BF0D5F9200037
:10A3300074300DF0E1F91FBDFF03000010B5483087
:10A340000378002B06D00378012B03D001210248AB
:10A350000BF053F810BDC046FF03000010B50121FB
:10A36000040006200BF049F8064B984208D1483407
:10A370002378002B04D02378012B01D020BFF7E7EE
:10A3800010BDC04616FCFFFF70B50600141E19DB99
:10A39000050048352B78002B02D02B78012B13D1E8
:10A3A000002330001A00743002F09CF8002C07D013
:10A3B00033004A331C80002407234C3634802B7032
:10A3C000200070BD014CFBE7014CF9E717FCFFFFD3
:10A3D00012FCFFFFF8B517000A68050052880B0051
:10A3E000012A09D1002118000BF05FF900220100B9
:10A3F0002800FFF7C9FFF8BD002F19DD0600483619
:10A400003278002A02D03278012A13D12A0000249F
:10A4100028005C321900148058300BF021F92B0011
:10A420004A331F8003234C352C8020003370E2E731
:10A430000148E0E70148DEE717FCFFFF12FCFFFFE1
:10A4400073B5079C0500002C1CDB060048363078ED
:10A45000002802D03078012816D106981BB2C0B26D
:10A460000090280012B274300DF056F9002C07D07D
:10A470002B004A331C80002407234C352C8033707A
:10A48000200076BD014CFBE7014CF9E717FCFFFF0C
:10A4900012FCFFFFF7B505000E00171E26DDFFF7C3
:10A4A0004DFF2B0048331C78E4B2002C20D13368D8
:10A4B0005B88012B09D1210030000BF0F6F8220057
:10A4C00001002800FFF760FFFEBD310001A80BF07E
:10A4D000BFF83A0001A92800FFF77CFF01A80BF0A4
:10A4E00060F82800FFF73AFF2000EDE70148EBE7AE
:10A4F0000148E9E717FCFFFF11FCFFFFF0B587B04B
:10A500000D9C06000F0002920393002C20DBFFF746
:10A5100015FF330048331D78EDB2002D1AD13900F4
:10A5200005A80DF0E1F80C9B01940093029A039B9F
:10A5300005A93000FFF784FF05A80DF0C8F8002C2E
:10A5400003D03000FFF70AFF2C00200007B0F0BD59
:10A55000014CFAE7014CF8E717FCFFFF11FCFFFF85
:10A56000F8B50400171E1DDD060048363378002BB1
:10A5700002D03378012B17D12200E3795632013B08
:10A58000137023000025200054331D8050300BF041
:10A5900067F823004A331F80022328004C342580AB
:10A5A0003370F8BD0148FCE70148FAE717FCFFFFEC
:10A5B00012FCFFFFF7B505000F00161E18DDFFF7B0
:10A5C000BDFE2B0048331C78E4B2002C12D13900B8
:10A5D00001A80BF03DF8320001A92800FFF7C0FFE9
:10A5E00001A80AF0DEFF2800FFF7B8FE2000FEBD3C
:10A5F0000148FCE70148FAE717FCFFFF11FCFFFFE9
:10A60000FF2902D84172002070470148FCE7C0468C
:10A6100017FCFFFFF0B51F0085B00AAB1B780400E4
:10A62000039300933B000D0016000EF09BF90028E9
:10A6300033D0237D082B2DD8236800221900FC314C
:10A640008A62A021C9005A50154905205A50013884
:10A65000C046C046C046C046C046C046C046C046CA
:10A66000C046C046C046C046F1D1236801325A50A8
:10A67000A0210432C9005A5005F0B8F8039B3200FB
:10A68000009329003B0020000EF06CF9237D01337C
:10A690002375CCE7034805B0F0BD2075FBE7C04645
:10A6A000FC0F00000EFCFFFFF0B51F0085B00AABE9
:10A6B0001B780400039300933B000D0016000EF07E
:10A6C00039F9002833D0237D082B2DD823680022A8
:10A6D0001900FC318A62A021C9005A501549052091
:10A6E0005A500138C046C046C046C046C046C04663
:10A6F000C046C046C046C046C046C046F1D12368E9
:10A7000001325A50A0210432C9005A5005F06EF8A7
:10A71000039B3200009329003B0020000EF00AF951
:10A72000237D01332375CCE7034805B0F0BD2075C8
:10A73000FBE7C046FC0F00000EFCFFFFF8B50D1E46
:10A7400030D000260227C468002C28D0AA88A3880D
:10A7500053403B4204D13A4204D1AB883B4219D02A
:10A76000646AF1E7A968A0680CF065F90028F4D0E4
:10A770002B88002B02D022889A42F1D16B88002BC3
:10A7800002D062889A42EBD1A288074B013613436C
:10A79000A380E5E7A368AA689342E1D1E8E7200037
:10A7A000002E00DC0148F8BD0080FFFF17FCFFFF12
:10A7B000F0B5060085B00D1E59D00127C468002CE5
:10A7C00022D00221AA8800230A4202D0A3885B0873
:10A7D0003B40226829688A4210D1A068A968002BF2
:10A7E0000AD00CF028F9002808D0A3881AB2002A51
:10A7F00006DB204805B0F0BD8842F6D0646ADEE78B
:10A800005B045B0CA380F4E7F0682A88002807D17A
:10A81000F5600123184968460AF05EFF0020E9E769
:10A82000010003001C88944206D25C6A1900002CC7
:10A830000DD02300F6E723001C88944207D15F88DF
:10A840006C88A74203D25C6A1900002CF3D18142C4
:10A8500009D10B889A4204D305D148886B88984265
:10A8600001D96962D4E74B6A6B624D62D1E7034854
:10A87000C0E7C04616FCFFFFFD03000017FCFFFF0A
:10A88000064B10B51A00040008322C3302604360F6
:10A890000430FEF739F9200010BDC0469092020046
:10A8A00008B4024B9C46043808BC604781A80100EC
:10A8B00008B4024B9C46043808BC6047955F020010
:10A8C0000C4A002311002C32083110B50381837229
:10A8D0004260C3600361436143830160040004304C
:10A8E000FEF704F9044B1A68002A00D11C6020000E
:10A8F00010BDC04690920200C4260020F7B50E009D
:10A900000125C4680192002C36D0238832889A42EF
:10A9100001D0002B23D1638872889A4201D0002B8A
:10A920001DD1FEF757F80123002806D0C022A388C6
:10A930001340C03B5A425341DBB2019A934219D1B2
:10A94000A7883BB2002B15DB10223100A0180EF0B7
:10A950008CFA40231F4204D020000BF024FB646AD1
:10A96000D1E7FEF737F80028F6D021000348FEF7BC
:10A97000E1F9F4E70025F2E72800FEBDA75F020039
:10A9800008B4024B9C46043808BC60472F610200A3
:10A99000F0B587B001930EAB1B88060003930D9BA7
:10A9A0000D000093019B02920C9F002B3DD0002FC5
:10A9B00002D1009BDB0738D52820FEF771FA04008E
:10A9C00010300AF07FFE6B461B89258063801820BB
:10A9D000FEF766FA0500009B08220593019B002103
:10A9E00003600C3004970EF05CFA082204A9281DBD
:10A9F0000EF03BFA0E4B02226B6100230399E360D9
:10AA00002362636233680A43A560A2805B68210009
:10AA100030009847002806D020000AF078FD20007A
:10AA2000FEF75EFA034807B0F0BD0348FBE7C046F7
:10AA30006961020016FCFFFF17FCFFFFF0B5040080
:10AA4000160000258380164A164B8571026021810D
:10AA500046810573186889B08C46A8421DD0124AF9
:10AA600005950492C02202926A4604AB82CB82C250
:10AA700023002A006146FFF78BFFC022094B0A49D9
:10AA8000186802926A46069106AB079582CB82C28D
:10AA900023002A003100FFF77BFF200009B0F0BD42
:10AAA000D4920200C42600209362020030B5002434
:10AAB00003730123034D84710560818082734373A6
:10AAC000846030BDEC92020070B5040000250C4B90
:10AAD0000E000833858085710360210018300BF06B
:10AAE00090FC2000210020300BF0AEFC054BA6802E
:10AAF000E5802572E5602561656120001C6070BD00
:10AB0000FC920200CC2600208379DB0702D5C160CD
:10AB1000002070470048FCE716FCFFFF8379DB0745
:10AB200001D5C06870470148FCE7C04616FCFFFF2E
:10AB300070B545690400002D22D0037A032B21D87B
:10AB4000FFF7ECFFA8622C20FEF7AAF92C220021C7
:10AB500005000EF0A6F9002263695A622369934248
:10AB600008D1636923610020237A65610133237270
:10AB700070BD13005A6A002AFBD162695A62F2E77B
:10AB80000148F5E70148F3E717FCFFFF13FCFFFF5F
:10AB9000144B70B55A68144C002A03D000225A6036
:10ABA0000132A2601A69002A17D00021196180239E
:10ABB000DB000E4DE3582868012B0FD1A923DB00E1
:10ABC000E1584942FFF7A0FF2868FFF7B1FF2B6863
:10ABD0005A69074BE2500123A36070BDFFF794FF51
:10ABE000F9E7C046FC10004000100040CC260020D1
:10ABF0000405000003000069002809D00221054A6D
:10AC0000D167426A1A611A7A013A1A72024B1960C4
:10AC10007047C04604E100E000E100E010B5002903
:10AC200003DB024B19600DF0EDFE10BDD0260020B5
:10AC300070B504001E0004AB1D7804F00FFD200069
:10AC40000E4B40302360FEF771FA230001364C337F
:10AC5000013522001E701D730023E1214E32A364D2
:10AC60006365138053809381D381013B200063642B
:10AC70004902FFF7D3FF200070BDC04638910200A3
:10AC8000F7B580277F053D697C690822113C6C433C
:10AC90000600210068460EF0E8F8104B009A9A4230
:10ACA00019D0009300230193796930001339694367
:10ACB0000BF0DFFB019A009930000BF0F2FB210052
:10ACC00030000BF0D6FB7969AB08133969432200D9
:10ACD00030000BF0D8FB0198FEBDC046FECA000054
:10ACE000F0B50D00A9B00D9200213022060010A889
:10ACF0000B930EF0D6F828000EF013F9431C0C93BA
:10AD0000102B00D9B5E00B9B202B00D9B1E0290016
:10AD100030000BF0F3FB071E50D129000C9A10A84D
:10AD20000EF0A3F80D990B9A14A80EF09EF880234C
:10AD30005B051A695F690C92113F7A4330005D69C7
:10AD40000B92FFF79DFF3022002104001CA80EF09B
:10AD5000A8F8290000270C9B1339594330000BF049
:10AD600088FB0D9730257D430B9B0833ED18A742D8
:10AD700042DA290030221CA80EF077F810A91CA88E
:10AD80000EF0C5F8002827D13C49300022000E9172
:10AD90000F940BF086FB6A46099513AB23CB23C2B5
:10ADA00023CB23C223CB23C23000129B1099119ACC
:10ADB0000BF085FB01230D930137D3E710300B9A7D
:10ADC0000D990EF043F804003800FEF789F8002CC6
:10ADD000A3D1200029B0F0BD6A4609951FAB23CB53
:10ADE00023C223CB23C223CB23C230001C991D9A3C
:10ADF0001E9B0BF064FBDFE7E5433023ED17254096
:10AE00005D430B9B08355D190D9B002B1DD10C9BE1
:10AE10003021981E05F09CF9A0422CD0174901342E
:10AE2000300022000E910F940BF03BFB6A4609950F
:10AE300013AB23CB23C223CB23C223CB23C23000AB
:10AE40001099119A129B0BF03AFB0B9930000BF002
:10AE500010FB80235B0559690C230C9A133963435B
:10AE60004A430233110030000B9A0BF00CFB002414
:10AE7000AFE7034CADE7034CABE7C046FECA0000AA
:10AE800017FCFFFF13FCFFFF70B50400A280FA223D
:10AE9000002308000C49920008312160A371606111
:10AEA000E260A360638209490BF028FB051E09D00C
:10AEB000010020001031022212300DF0D6FF2800D0
:10AEC000FEF70EF8200070BD1493020052A002009D
:10AED00030B50225837987B004002B4204D1FDF7F9
:10AEE00005FEA3791D43A57120000BF051FB00283E
:10AEF0001CD06B46DD1C28000BF041FB2B78002B8F
:10AF000017D001A80BF039FB0321019AD3170B408E
:10AF10009B189B102382FEF78BF8E368A188181812
:10AF20000123A0601A0002A80AF0D6FB002007B097
:10AF300030BD0122064B1A60064A51680029FCD038
:10AF400000215160044A1268019201225A60DBE735
:10AF500000C00040FCC0004008C50040022802D1EB
:10AF60000122014B1A707047BE29002070B5064CB3
:10AF700005002378002B04D1044801F0AFFF012322
:10AF80002370280070BDC046BF2900205DAF0100BE
:10AF900070B50C000AF0BFF9002810D00023144D42
:10AFA000A40A2B7020000BF007FB002803D00A2016
:10AFB0000DF02FFEF6E72B78002BFCD070BD0221A0
:10AFC0000C4B0D4A99508021C90008005D58002D96
:10AFD000FCD0A121C9005C5019580029FCD00021E7
:10AFE00099508021C9005A58002AFCD0E6E7C04693
:10AFF000BE29002000E0014004050000F8B50C0067
:10B0000015001E000AF087F9002811D00023174F01
:10B010003B703200290020000BF0CCFA002803D04E
:10B020000A200DF0F6FDF4E73B78002BFCD0F8BDCC
:10B0300001210F480F4B844619508021C9005A58EE
:10B04000002AFCD080270022FF00964207DD9100F5
:10B0500068586050D9590029FCD00132F5E7002228
:10B0600061465A50DA59002AFCD0E0E7BE29002098
:10B070000405000000E0014010B50400054B083352
:10B0800003601C300AF08DFA200018300AF089FAAB
:10B09000200010BD2C930200FF23F0B52C4D8DB085
:10B0A0002B700023040069460088009303F0B0FA77
:10B0B000002802D16B469B782B70264E3368DB68E4
:10B0C000002B07D1002320881A0019000BF078FA12
:10B0D0000DB0F0BD2B78032BF4D81F4901A8FDF764
:10B0E000EBFF336801A9DE6804A80AF0B1FA04A9ED
:10B0F00030000BF036FA0027060004A80AF051FAD7
:10B10000BE421ED031002022103104A80DF0ADFE49
:10B110003000FDF7E5FE297804ABC9005918082274
:10B1200002A80DF0A2FE20880123082202A90BF03C
:10B1300047FA0137002804D12088084A0C210BF077
:10B140003DFA01A80AF02DFA002FBBD0C0E7C04697
:10B15000F0210020E026002062A00200FFFF000096
:10B16000F0B5837991B004005B071BD5FDF760FF54
:10B1700000232269801A9941994203D1F423FF33B5
:10B1800098420FD9A068002808D0364B1D880CF0D3
:10B1900062FB036815221B6A290098470422A379E1
:10B1A0009343A371A3799B0759D52F4D2B68DB6877
:10B1B000002B50D02D4B1B78032B4CD8294B2C49FE
:10B1C0001B8804A80193FDF777FF2B6804A9DE68AC
:10B1D00008A80AF03DFA08A930000BF0C2F90700F0
:10B1E00008A80AF0DEF902AB9E1D08233200338066
:10B1F00006A9073B01980BF0E5F9002F08D03900AC
:10B200002022103108A80DF030FE3800FDF768FE4E
:10B21000164B32881B7806A9DE0008AB9E19300059
:10B220000DF014FE002813D0082206A930000DF0FE
:10B230001CFE2B6804A9DD6805A80AF009FA202382
:10B2400008AA05A928000BF092F905A80AF0A9F9A7
:10B2500004A80AF0A6F90222A3799343A37111B0BE
:10B26000F0BDC04668290020E0260020F021002023
:10B2700062A00200F7B5089E0500152922D801201A
:10B2800007008F40244C27421CD0E97FCC181F2C8C
:10B2900041DC69183418A14210D80021C8B2834299
:10B2A00004D9545C701884700131F7E732789A1829
:10B2B0003270EA7F9B18EB7700202CE00878C854A6
:10B2C0000139E8E73478013CE4B2A34208D1002315
:10B2D000D9B28C42F0D9D05CF11888700133F7E70D
:10B2E000EF7F0120FF183F1B1F2F14DC0227A01C3B
:10B2F0007F423618381B0190E87F2F18BE4204D2D7
:10B300003078019FF0550136F6E7041B023CEC77DC
:10B3100028000BF0A1F9FEBDFC002000F0B585B0BF
:10B3200001930AAB1E880BAB1B78451C02930EAB36
:10B330001B78040003930B78170003704B8A1022CC
:10B340004382013128000DF090FD6B469B882683D7
:10B3500063836B461B7B002623776B4601221B7A97
:10B360006761E683EB77A31CDA770C9B0C2563629D
:10B37000230020000D9A28331A705E709E702A00F8
:10B3800031002C300DF08DFD2000074BE663A363E8
:10B390002A00310040300DF084FD2000034B26656B
:10B3A000E36405B0F0BDC046DB650200CD65020078
:10B3B00070B50D000CF04FFA04000368002D09D1A0
:10B3C0005B699847FA2080006843074904F0C0FE93
:10B3D000E08070BD9B6898478542F3D223682000C7
:10B3E0009B6898470500EDE771020000F0B5070083
:10B3F0001600A1B002C704006B4918A81D000BF08D
:10B4000072F9331E03D030000DF08BFD83B20122A0
:10B4100004920022039202920232019200933200BF
:10B4200018A93800FFF77AFF23006049583318A89D
:10B4300007930BF058F92B1E03D028000DF071FD77
:10B4400083B20122049200220392029202320192FC
:10B4500000932A0018A90798FFF760FF23005449BA
:10B46000AC3318A808930BF03EF9269B002B03D0B1
:10B4700018000DF056FD83B20122049200220392BF
:10B480000292023201920093269A18A90898FFF7B7
:10B4900045FF631CFF33474918A809930BF023F9B4
:10B4A000279B002B03D018000DF03BFD83B2012237
:10B4B00004920022601C03920292023201920093D5
:10B4C000279A18A9FF30FFF729FF23005533FF33D0
:10B4D000394918A809930BF006F9289B002B03D0D3
:10B4E00018000DF01EFD83B2012204920022039287
:10B4F0000292023201920093289A18A90998FFF744
:10B500000DFF2300A933FF332C4918A80A930BF031
:10B51000EAF8299B002B03D018000DF002FD83B23E
:10B5200001220492002218AD03920292023201928B
:10B530000093299A29000A98FFF7F0FE204B1B7808
:10B540000B93002B2DD1079B12971393089B0DAFE4
:10B550001493631CFF331593099B1A4916930A9B96
:10B56000380017930BF0BFF81D2149203B781022BB
:10B570002B707B8A12AE6B8206ABC918C0180DF017
:10B5800074FC06232B756B469B8D2068AB83AE61E4
:10B590000CF065F9036829001B6898470122084BE5
:10B5A0001A70200021B0F0BD292A0000242A0000D2
:10B5B000252A0000272A0000262A0000282A000049
:10B5C000C02900200A18000070B5002504000A4BAD
:10B5D0008580083385710360C1601830FDF7A6FDD2
:10B5E00020001C30FDF7A2FD044BA5601C60012368
:10B5F00065612000A37170BD2C930200E02600203D
:10B60000FA2130B585B00500012302228900684681
:10B610000AF062F8074C2068002809D00BF09CF86B
:10B620002988054B22681980022391790B43937175
:10B6300005B030BDE02600206829002010B50C00C0
:10B6400007290DD880680CF006F9064B19570368D6
:10B650005B6C9847431E9841034B4042184010BD15
:10B660000248FCE75AA0020016FCFFFF17FCFFFF90
:10B67000F0B5A44C0D00A544040007939AAB1B78C9
:10B68000A14909A804930692FDF716FD20002900A0
:10B690001C3009F0E5FFC020800001F015FC0820F7
:10B6A000FDF7FEFB0600002100F0D0FF15ADA660FF
:10B6B00000210C220EA80DF0F4FB2B000EAA83CA69
:10B6C00083C3924B2900EB60002330002B610CF008
:10B6D000ABF8A0680CF0BFF808220021059016A86E
:10B6E0000DF0DFFB1420FDF7DBFB29000200884B87
:10B6F0001593C8C9C8C2874B059EC3600023A436F2
:10B7000003613368002B00D0F5E03060A0680CF0D6
:10B71000A6F808220021060016A80DF0C2FB14208E
:10B72000FDF7BEFB7C4B1593030086CD86C37B4B98
:10B73000C36000230361336B002B00D0DDE0306376
:10B74000A0680CF088F808220021050016A80DF06A
:10B75000A8FB1420FDF7A4FB714B15AE1593030055
:10B7600086CE86C36F4B9835C360002303612B6878
:10B77000002B00D0C3E02860012504AB1B7C04AA89
:10B780002B4308A9280013740AF01EFFA0680CF0D0
:10B790006AF8036864495B6A9847A0680CF063F82C
:10B7A000036862499B699847A0680CF05CF8002325
:10B7B00002680093166804992A00B047049B002B86
:10B7C0000AD020000AF0D1FF032805DDA0680CF0A4
:10B7D0004AF80368DB6898470EA80AF034FF2F2068
:10B7E00004ABC0180AF02FFF362004ABC0180AF0D3
:10B7F0002AFF3D20042504ABC0180AF024FF0EAB3D
:10B800000A93A06804AB5D770CF02DF803680AA9D1
:10B810001B699847A0680CF01EF803680AA95B6DC5
:10B820009847A0680CF017F803680021DB6D984773
:10B83000A0680CF010F8036802219B6D9847002166
:10B840002000FFF7FBFE1820FDF72AFBA16800F09F
:10B8500005FA374B374A1B68A1680393364B15A886
:10B860001B6800260293354B0CAF1B680193069BA7
:10B870001B685B190093324B12681B68FFF7B6FD1B
:10B880003020FDF70DFB079AA16800F0A7FAA06829
:10B890000BF0E1FF036839009B6A9847294BBE8093
:10B8A000A0680C930BF0D7FF03683900DB6A984758
:10B8B0002900A0680AF023FF099A09219378A0685B
:10B8C00052190AF02FFFA0680BF0C5FFC8210671BE
:10B8D000A068FFF76DFD04AB1B7FB34204D0A068E6
:10B8E0000BF0B9FF0AF0F5FE09A809F05AFE9523FE
:10B8F0009B009D44F0BD036107E703611FE70361FF
:10B9000039E7C046ACFDFFFF55A10200E965020022
:10B9100001B60100F765020099B00100056602005A
:10B92000336602001366020049B901007DB90100C7
:10B93000DC260020D826002008200020D426002065
:10B940000C2000200800100013B506226846FDF701
:10B95000C3FB094B1C68002C0AD0694601A809F0FA
:10B9600077FE200001A90AF021FF01A809F019FEC5
:10B97000684609F016FE13BDE0260020002373B5CB
:10B9800001AE0C0031000500019302F041FE0028D9
:10B9900002D1B278064B1A70064B1868002806D000
:10B9A00061426141044BC9B21D800AF007FF73BDBB
:10B9B000F0210020E026002068290020F0B50400D6
:10B9C00097B0039107A89C490592FDF775FB9B4929
:10B9D00008A8FDF771FB22000FAD28001C3207A953
:10B9E00009F04DFE08AA290009A809F048FE280020
:10B9F00009F0D7FD92490AA8FDF75EFBA0680BF09D
:10BA00002AFF03680DAE5B69984728000AF01BFE09
:10BA1000332004ABC0180AF016FE3A2004ABC0185D
:10BA20000AF011FE412004ABC0180AF00CFE80237E
:10BA3000DB00B380A0680D950BF00DFF03683100AB
:10BA40005B6D9847A0680BF006FF036800219B6DB3
:10BA50009847A0680BF0FFFE0700002506000A3794
:10BA60001F22002138000DF01CFAFD7730000AF08B
:10BA700027FE0621A0680AF042FE099A0921937860
:10BA8000A06804320AF04EFEA0680BF0E4FEC82164
:10BA90000571A068FFF78CFCA0680BF0DCFEFF27A7
:10BAA0002E000581A0680BF0D6FE0AF012FE039866
:10BAB000FEF728FC0AA90CA809F0CAFD78220CA9F7
:10BAC0000398FEF777FD0CA809F06BFD03992000A1
:10BAD0000AF087FE2000FDF709F804950125636947
:10BAE0001D402DD057490BA800F0ACFC0BA90CA8A9
:10BAF0000BF0FAFD00220CA91300019200920398AA
:10BB0000FEF7FCFC0CA80BF0E2FD049B002B42D1DD
:10BB1000043F282F41DD0025FE2F00DC049D059801
:10BB200009F07BFF002806D0012362699A431300C5
:10BB300004221343636100260BA80BF0C8FD049593
:10BB400004226369134233D0FF210398C826FEF70D
:10BB500057FD0025B600A36902229B5EAB4222DDA1
:10BB6000200029B2183009F0A0FD0023010003983D
:10BB70001A00743000F0B6FC3000FDF74FF803985F
:10BB80000AF068F9C820FDF749F8022263691342F8
:10BB900009D10135DFE70437BBE703980AF05AF90A
:10BBA000002FBCDDBAE7FA208000FDF737F8002649
:10BBB000022365691D421CD006331D4024D0224952
:10BBC0000BA800F03FFC0BA90CA80BF08DFD002288
:10BBD0000CA90192009213000398FEF78FFC0CA8A9
:10BBE0000BF075FD1948FDF719F80BA80BF06FFD68
:10BBF000174E6420FDF712F8164B01369E4200DC0A
:10BC00006CE709F09AFB69E713490BA800F01AFCEE
:10BC10000BA90CA80BF068FD2B002A000CA90195BC
:10BC200000950398FEF76AFC0CA80BF050FD0BA8DA
:10BC30000BF04DFDDDE7C0466EA002007EA00200C5
:10BC400080A002008EA00200D3A00200983A00005B
:10BC50008C0A00008B0A000010A102000022594B40
:10BC6000F0B50833060003600F001000A9B0B16002
:10BC70000BAB991801324870102AFAD10F3A524C86
:10BC80001A700E32105D991A0874013AFAD2997B33
:10BC90005A7B09020A4331000C31039125211B789C
:10BCA00013AD2B7002ABC918452302A81B186A827A
:10BCB000180010220DF0D9F8039B64216B61012359
:10BCC000002402AA2B7752181993093313701DAB65
:10BCD0001C706D2302AA9B181C706E2321009B18F8
:10BCE0001EA80C22EC836C621C700DF0DAF8374B46
:10BCF0000C22210023A8AB63EC630DF0D2F8344B87
:10BD000002AAEB6446239B180322DA7722002C65F3
:10BD10000595347306AD2B1901345A70102CFAD1E5
:10BD200001232C482B700E33195CEA1A1174013B65
:10BD3000FAD211212520AA7B6B7B12020BAC134394
:10BD40002A78638202ABC9182270C01810220DF045
:10BD50008CF80123237505ABA36100233800A3836E
:10BD60000BF07DFD036821001B68984713ABDB8B4C
:10BD7000B068B3820BF073FD002203680092B18AB1
:10BD8000039ADC680123A047B0680BF068FD070048
:10BD90001420FDF785F800220123040002610692B9
:10BDA00040C00832290007930DF05FF80A4BE360AA
:10BDB000BB69002B03D13000BC6129B0F0BD236109
:10BDC000F9E7C046449302006DA10200DB65020062
:10BDD000CD6502007DA1020043680200F0B5002697
:10BDE0000400734BDDB0083303608160C26086805D
:10BDF000867132006F4947A80AF0C3FD230014334F
:10BE00000125042708931223009704950193089AAB
:10BE1000330047A9039602961DA8FFF77FFA320068
:10BE2000654947A80AF0ADFD0820220000973300BD
:10BE300015AF10320495019047A90396029632A8D7
:10BE4000FFF76CFA32005D4938000AF09AFD2300D2
:10BE5000082004221C330993390033000495019013
:10BE600000920396099A029647A8FFF757FA320004
:10BE7000534938000AF085FD5420FDF711F80500FC
:10BE8000200001231221042218300790049301910D
:10BE90000092390002003300280003960296FFF753
:10BEA0003DFA2800474BA5620822EC620AA930300F
:10BEB0000A930B960CF0D9FF434B0422AB6301238A
:10BEC00029352B7009992661E66107980CF0CDFFA2
:10BED0000422079908980CF0C8FF6621032304AADE
:10BEE0008918CB77BA2104AA8918CB77872104AAAD
:10BEF00049008918A26ACB77911CA685CB771DAB28
:10BF00000C9332AB0D930F9247AB32002F4910A820
:10BF10000E930AF036FD3021452004AB5B181B78E8
:10BF200012313B7004AB5B181B8811397B8204AB68
:10BF3000C918C01810220CF098FF04220CADA0689C
:10BF40003A75BD61BE830BF08AFC036839001B683B
:10BF50009847822204AB9B181B885432238404AB7D
:10BF60009B181B885432A38404AB9B181B88A068C1
:10BF700063840BF074FC07001420FCF791FF0500AC
:10BF8000134B066108221093119610A910C00CF0F3
:10BF90006CFF104BEB60BB69B34206D1BD61200062
:10BFA000FCF7A4FD20005DB0F0BD2B61F6E7C046B4
:10BFB00050930200ADA102008DA102009DA10200DC
:10BFC000BDA1020055690200C1680200CDA10200B6
:10BFD00041C00100EB680200F0B504000E0015003E
:10BFE00085B01F000CAB1B881030019309F06AFB71
:10BFF000268065801820FCF753FF02AE0500330051
:10C000000AAA03CA03C32F602800082700213A00A8
:10C010000C300CF046FF3A003100281D0CF025FFD3
:10C02000064B02226B61200000230199A5600A43A0
:10C03000E360A2802362636205B0F0BD156902006F
:10C04000F0B50B898DB00593CB68060004934B883F
:10C05000828C9A420ED1049C049B059A9B181B1B50
:10C06000032B3BDD62882188012308A809F034FBFB
:10C070000434F1E7428C9A4230D1049C049B059A27
:10C080009B181B1B032B29DD23882820069363881C
:10C09000F7680793124B089300230993FCF700FFFE
:10C0A000C0236A460500029308AB03CB03C23300EA
:10C0B0000699079A2800FFF78FFF3B6829005B6805
:10C0C00038009847002807D0002D05D0280009F037
:10C0D0001EFA2800FCF704FF0434CFE70DB0F0BDD2
:10C0E000D369020070B5040090B080680AF06CFC5F
:10C0F000022101401AD1A38D002B17D00C4B6A46A8
:10C1000004931023E568A1850591029304AB41CB0C
:10C1100041C20A00230006A8FFF75EFF2B6806A9AC
:10C120009B682800984706A809F0F1F910B070BD87
:10C13000D3690200002815D0006041608260C360AE
:10C14000046145618661C761444604624C464462AD
:10C15000544684625C46C462644604636E46466329
:10C1600074468463002A06D0C46B043C043A2568F4
:10C170001560B442F9D18C6BA6464E6BB546002BC8
:10C1800006D0CC6B043C043B1D682560B442F9D159
:10C190000C6BA446CC6AA3468C6AA2464C6AA146A4
:10C1A0000C6AA046CF698E694D690C69CB688A68B4
:10C1B000086849687047006041608260C36004613C
:10C1C00045618661C761444604624C4644625446F8
:10C1D00084625C46C462644604636E464663744689
:10C1E0008463C46B043C043925680D60B442F9D102
:10C1F000C76986694569046970470060416082606B
:10C20000C360046145618661C761444604624C466F
:10C210004462544684625C46C462644604636C466D
:10C2200044637446846304697047846BA646446B18
:10C23000A546046BA446C46AA346846AA246446A1F
:10C24000A146046AA046C769866945690469C3684E
:10C25000826800684168704710B5041E0CD00CF06D
:10C2600060FE431EE3189C4208D222781978013BF5
:10C2700021705A700134F6E7014810BD0020FCE738
:10C2800017FCFFFFF0B585B002900C1E2AD00023EA
:10C29000C217161A56400193019B30005D1C6319AA
:10C2A0000A215F1E039304F0C3F84942303139700C
:10C2B00030000A2103F0D6FF47420600002F0FD1BD
:10C2C000029B002B04DA2D23019D039A0235137083
:10C2D000002320006355FFF7BFFF380005B0F0BD15
:10C2E0000195D9E7004FF8E717FCFFFF10B5826012
:10C2F0004A4304004160002A0ADD074B90009A423D
:10C3000001DD01204042FCF7CBFD2060200010BD84
:10C3100000230360FAE7C046FEFFFF1F4A688B68F0
:10C3200070B58360534304000D004260002B12DDA2
:10C330000A4A9E003000934201DD01204042FCF792
:10C34000AFFD002320602A68D158C15004339E42BB
:10C35000FAD1200070BD00230360FAE7FEFFFF1F43
:10C36000014B03607047C0466893020030B5006817
:10C370004488A1420CDA8588AA4209DA002907DB41
:10C38000002A05DB5443401800198371002030BD9A
:10C390000048FCE717FCFFFFF0B5070085B00E0072
:10C3A0001D0000291FDD002B1DD004686388039346
:10C3B0008B4200DD0391A3880293934200DD029239
:10C3C000002306340193019B029A93420EDA29005E
:10C3D0002000039A0CF049FD3B68AD195B88E41816
:10C3E000019B0133EEE7024805B0F0BD0020FBE7FA
:10C3F00017FCFFFFF8B504000D0016001F00002910
:10C4000001DB002A02DA0E4B2360F8BD100048431E
:10C410000630FCF745FD206009F0ACF923685D802B
:10C4200023689E80002F06D03B00320029002000A8
:10C43000FFF7B2FFE9E720000BF05EF9E5E7C04641
:10C4400068930200F0B5060087B00D1E04D1244B9E
:10C450000360300007B0F0BD00200F0004000100B1
:10C4600001903B78002B1AD03022524294469C44D3
:10C470006246092A11D90A2B0AD1019B24180133DB
:10C480000193A14200DA2100002004000137E8E70F
:10C490000028FBD001340020F8E70120F6E76A46C7
:10C4A000928809B212B23000FFF7A4FF33689C1DD6
:10C4B00003AB1F002A78002ACBD01100303909299C
:10C4C00003D81A7001330135F4E700221A70BB4219
:10C4D000F9D938000CF0A9FC3B0020700134F2E7D8
:10C4E00068930200F0B5040089B006A80E0002921D
:10C4F0001D00FCF75FFC236802995A88914235DAE7
:10C500009B889D4232DA1F2E30D9079B01939E42B1
:10C510002CDC0523002273430393069B0493039BA7
:10C5200004999B18A03BCB5C00210593AE18029B9D
:10C53000CF1823685888019087420EDA9888B04255
:10C540000BDDDB1910270F41019870431B1805986C
:10C550000740781E87417F429F7101310529E6D14E
:10C560000132052ADBD1002009B0F0BD0048FBE70D
:10C5700017FCFFFFF7B50468070063880E1E0193E0
:10C580001EDD994218DA0023063400933B68009AB6
:10C590009B889A4212DA019BA1199D1B2A00200058
:10C5A0000CF063FC601931000BF098F83B685B8875
:10C5B000E418009B0133E8E70BF09EF8002000E050
:10C5C0000048FEBD17FCFFFF10B50548054C206074
:10C5D00009F0D3F8044A054920000CF002FC10BD14
:10C5E00068930200E426002000200020CF7602009D
:10C5F00070B5002817D1114D2E68002E11D10830CA
:10C600000CF0FAFB066046600D4E04003368002B08
:10C6100002D10BF05BFB306023682C609B00F35869
:10C620006360286870BD0122064907480B68134003
:10C63000F8D1026043600A60F4E7C046EC260020AF
:10C64000F8260020E8260020F0260020002370B500
:10C6500004000160436099420AD1064D2B68002B0B
:10C6600002D10BF033FB286023689B00EB5863601A
:10C67000200070BDF8260020436810B50400002B90
:10C6800002D104480CF0CCFA606803681B69984733
:10C6900010BDC046DDA10200436810B50400002BA8
:10C6A00002D104480CF0BCFA606803689B699847A3
:10C6B00010BDC046DDA10200436810B50400002B88
:10C6C00002D104480CF0ACFA606803685B6A9847D2
:10C6D00010BDC046DDA1020000487047FFFF00000A
:10C6E000F0B597B00593036807AD1B6804910393F9
:10C6F00011002B00060091C991C30024D3682100CA
:10C700000C220CA8EB602C610CF0CBFB22000B4B35
:10C7100010940F9311AB1C70191901344A70102C2E
:10C72000FAD15A820193059B2A00009304990CAB1D
:10C730003000039CA04717B0F0BDC04685790200C9
:10C7400070B5FC30046C0500002C0DD124200CF0D9
:10C7500053FB064B44608361054B8460C4600461F5
:10C760004461C46103602864286C70BD4494020075
:10C770002C95020070B5FC30C56B0400002D11D162
:10C7800034200CF039FB084B85604360074B456152
:10C790000361074B0562C361064BC5628362064BAA
:10C7A000E0630360E06B70BD749402006494020067
:10C7B000D4940200E4940200F49402007FB503795B
:10C7C0001548002B22D0154E154C33782000002B35
:10C7D0001CD102AD28000BF0B2F8002810D16B88F4
:10C7E000592B0DD12B78AA88D91F012910D8009276
:10C7F0000C4A2021200008F061F80123337004E086
:10C800002022094920000CF093FB200004B070BDE9
:10C810000092064AEDE7C04600A20200E12900208E
:10C82000C129002022A202001AA202003FA2020097
:10C8300010B50400024B08C00BF061F9200010BDD8
:10C840006494020010B50400024B08C00BF06CF9B0
:10C85000200010BD74940200064B70B50400036004
:10C860004068002804D005690CF0C2FA2800F8E7F7
:10C87000200070BD54940200064B70B504000360A4
:10C880004068002804D005690CF0B2FA2800F8E7E7
:10C89000200070BD84940200064B70B50400036054
:10C8A0004068002804D005690CF0A2FA2800F8E7D7
:10C8B000200070BD94940200064B70B50400036024
:10C8C0004068002804D005690CF092FA2800F8E7C7
:10C8D000200070BDD4940200064B70B504000360C4
:10C8E0004068002804D005690CF082FA2800F8E7B7
:10C8F000200070BDE4940200064B70B50400036094
:10C900004068002804D005690CF072FA2800F8E7A6
:10C91000200070BD78930200064B70B504000360E0
:10C920004068002804D005690CF062FA2800F8E796
:10C93000200070BD88930200064B70B504000360B0
:10C940004068002804D005690CF052FA2800F8E786
:10C95000200070BD98930200064B70B50400036080
:10C960004068002804D005690CF042FA2800F8E776
:10C97000200070BDA8930200064B70B50400036050
:10C980004068002804D005690CF032FA2800F8E766
:10C99000200070BD4494020070B5FC30046C0500AA
:10C9A000002C0DD124200CF027FA064B4460836143
:10C9B000054B8460C46004614461C4610360286401
:10C9C000286C70BD449402002C950200104B10B5E9
:10C9D000083303600F4B0400C36080230E4A5B00E2
:10C9E000C250C018FDF764FB20000C4BB830E36068
:10C9F000FFF7B2FF2000AC30FFF79EFF2000A03011
:10CA0000FFF78AFF20006C30FFF776FF200010BD93
:10CA100058950200A09502000C970200B8930200FE
:10CA2000F8B505000400AC356B68AB60A868002859
:10CA300007D0C36821009847AB68002BF4D01B696E
:10CA4000F3E72500B0352868002804D006690CF00B
:10CA5000CFF93000F8E72200FC2128605832137823
:10CA60000B40137023005C33187020000A300BF069
:10CA700024F9200034300BF020F9606E002804D037
:10CA800005690CF0B5F92800F8E7250098356066CF
:10CA90002868002804D006690CF0AAF93000F8E7ED
:10CAA0002600A43628603568002D05D02F6928009F
:10CAB0000CF09EF93D00F7E72000356029000C22BC
:10CAC0006C300CF0EEF92000074BE567A3672900F6
:10CAD0000C2280300CF0E5F92300044A8C339034AA
:10CAE00028001A602560F8BD697902005B790200B0
:10CAF000444AF0B50600C260A022434B1636083304
:10CB000003600100002342820400320085B00371FB
:10CB10008360037483823531137001329142FBD1FB
:10CB2000802580222000AD00D201F37735841100EA
:10CB300000933830002300F039FF230021004033F8
:10CB400003931A002B0000255F31157001328A42D1
:10CB5000FBD1039AFC21D577220060321380137930
:10CB600020000B401371230068331D70274B25678D
:10CB7000E3660C22002178300CF093F923002700A3
:10CB800088331D60224B0837FB67843700210C2255
:10CB900038000CF086F91F4B1F4AFB602300A033BE
:10CBA0003D611A601D4A5D60DA601D4A1D619A612F
:10CBB000DD6130000BF081F803980BF07EF8194B23
:10CBC000601CE3602300C4331D705D709D70FF30F6
:10CBD00002F0FCFC8C235B00E55023001933FF338B
:10CBE0005D618023104A5B00E25023000122200097
:10CBF000FE3352425A86023B9D63DD631D6405B0DD
:10CC0000F0BDC046B8930200589502007893020028
:10CC1000697902005B790200889302009893020010
:10CC2000A8930200A09502000C97020070B5074C73
:10CC30002368002B07D1A02040000CF0DDF8050090
:10CC4000FFF756FF2560206870BDC046FC26002017
:10CC500070B50C220D00002104000CF022F9002315
:10CC60002361024B25602000E36070BD77790200EC
:10CC700070B500250400254B85800360244BC560FA
:10CC80008360244B85614361234B45620362234BE0
:10CC90000563C362224BC563836329004430FFF7F9
:10CCA000D7FF200029005830FFF7D2FF20002900CD
:10CCB0006C30FFF7CDFF1B4B220023602300803236
:10CCC000F83320C29342FCD126001D00E936FF361E
:10CCD00028000822002108350CF0E3F8AE42F7D115
:10CCE0008E2300229B00E11804C6B142FCD18E23A2
:10CCF00000219B00E2540C4B0C4AE318A218198047
:10CD000002339A42FBD1200070BDC046A4940200B9
:10CD1000549402006494020074940200849402000B
:10CD2000949402002C9602003A0200006202000075
:10CD300010B5040002F03EF8034B1B68002B01D035
:10CD40002000984710BDC04604270020F0B58BB0E6
:10CD5000050001F09DFA0020FFF768FF0368070057
:10CD60001B6998473B6804009B69380098473B68FB
:10CD700006005B6A380098470300288810380B28A3
:10CD800062D803F0DBF9063E6161615B6161616756
:10CD90006179AF88200039000BF0C8F922006B7B65
:10CDA000583201931378A8799C46022361460B43BD
:10CDB000137004AB1F80012304AA9370D07013007A
:10CDC0006A461279E91D9A722B000622163305A8CD
:10CDD00009930CF04AF829000B2004AB06220E310F
:10CDE000C0180CF042F894346368A360A06800286F
:10CDF0002AD0C36804A99847A368002BF4D01B6904
:10CE0000F3E720002F49AF880BF090F922000220B1
:10CE100058321378A9798343137004AB1F8099703B
:10CE2000A0346368A360A06800280DD0C36804A97B
:10CE30009847A368002BF4D01B69F3E75B69A888C7
:10CE4000A91D002B00D09847290030000BF048FAAC
:10CE50000BB0F0BD636E002BF6D0AF79A366A06E69
:10CE60000028F1D0C36839009847A36E002B01D188
:10CE7000636EF3E71B69F1E7012269460D27AB7B7F
:10CE8000EF571A4001925A07920FDB080A720B7390
:10CE90000622E91D04A80BF0E8FF6A46127904ABEC
:10CEA000DA716A46127A9F711A726A46127B200002
:10CEB0005A722B000F3307938C348030236804A9F7
:10CEC0009847C1E7FFFF00000723D72802D9024B8C
:10CED000186000231800704700270020014B1860DD
:10CEE0007047C046042700201FB58022A323D20527
:10CEF000DB00D3580820DB0700D405301C4B482248
:10CF00001C4902F0ABF900280AD080B2002807D1F2
:10CF1000BFF34F8F184B194ADA60BFF34F8FFEE70C
:10CF2000002302A8029301330370154B1B68436072
:10CF30000AF052FF002802D0072005B000BD684665
:10CF40000AF048FF0028F7D169460AF041FF00289F
:10CF5000F2D10C4802F0B2F980B20028EDD10A48B3
:10CF600002F0B6F980B20028E7D100F01FF8E4E73C
:10CF7000DD7D02000827002000ED00E00400FA0536
:10CF8000002700204DCD010031CD010080B20028E6
:10CF900007D1BFF34F8F034B034ADA60BFF34F8FC4
:10CFA000FEE7704700ED00E00400FA051FB500231E
:10CFB00002ACA380104B01A80293C8235B00E3805E
:10CFC000803BFF3B037005220C490AF013FF80B23F
:10CFD00000280FD1802080000AF008FF80B20028CE
:10CFE00008D120000AF004FF80B2002802D10AF024
:10CFF000FBFE80B204B010BD2800900164A20200C4
:10D0000070B500200D00FFF711FE03685B6A9847BA
:10D010002B780400142B1ED003D8132B0CD0002027
:10D0200070BD152B1FD0222BF9D16B68188823698E
:10D03000002BF4D09847F2E76B68012518889B789D
:10D04000646819005A08DB0629402A405B0F002C4F
:10D05000E5D0A047E3E76B6818889978A368002BB0
:10D06000DDD09847DBE76868827813091207120F52
:10D07000012A03D0022A0BD0002106E0013BDBB2DB
:10D080000021022B01D8064AD15C0088E368E6E75C
:10D090000421012BF9D00131022BF6D0ECE7C04678
:10D0A0006AA20200014B18787047C046E2290020AE
:10D0B000F0B51D000023304F87B000923A7806008B
:10D0C0000C009A4204D101F0A9FE002803D00B23E2
:10D0D000180007B0F0BD002D0ED003A92220039543
:10D0E0000AF08CFE002807D006230828F0D011385B
:10D0F000434243410433EBE7002302AA10001370BC
:10D1000000F080FE0028E2D101251C4902220B78A4
:10D110002E40AB433343072693430193009B2C409F
:10D1200033409340AC409C46019B02AA1C431C2305
:10D130009C4363461C430E239B181880104B0C70B5
:10D140000393022303AC2371093002AB0522C018FC
:10D150000BF08BFE21000B4800F0BEFE002807D02C
:10D1600033000428B4D0013B0828B1D00533AFE721
:10D170003D700300ACE7C046E2290020F121002009
:10D1800001D00100E329002010B5074800F07CFF22
:10D190000023984206D00733042803D0013B082817
:10D1A00000D00533180010BDE3290020002373B51B
:10D1B00001930F4B01AD1B780E0029002B7001F07D
:10D1C00027FA041E05D00423052800D007331800D1
:10D1D00076BD3100280000F0B9FE23000028F6D00B
:10D1E00007230428F3D0013B0828F0D00533EEE7ED
:10D1F000E329002073B5114C0E0005000522210023
:10D2000068460BF032FE012E03D0022E10D002230E
:10D210000CE002222378B34393436946280023702D
:10D220000AF0EAFD0023984200D00B33180076BDC7
:10D23000012322781343B343EFE7C046F1210020D6
:10D24000094B10B51A7801000923002A09D00748B4
:10D2500000F0B4FE0023984203D003330E2800D020
:10D260000333180010BDC046E2290020E329002046
:10D27000024B0B60092313607047C0466DA2020089
:10D2800010B504000020FFF7D1FC03681B69984724
:10D290000300F3331C7086235B00C05003000021A1
:10D2A000044AFC335A61044A99615A62F4300BF023
:10D2B00033FB10BDE97F0200FB7F0200012110B5A6
:10D2C000044A080002F030F80023984200D00B33E3
:10D2D000180010BD81D20100F0B593B0019000207C
:10D2E0000C00FFF7A3FC03685B6A9847FFF7DAFEC0
:10D2F00006AB00280ED000221A7105AA0692082259
:10D3000018001A730AAA9A60FFF79AFF002803D040
:10D3100013B0F0BD18711873002727732771019B94
:10D32000BA331B78BB4242D907237B431A000199C9
:10D33000BB32CB18BB331B788A180292022B2ED13A
:10D34000002506AE337BAB4223D9AB000393089B89
:10D35000AA00995802980AF053FD00281CD0B3681F
:10D360009C46AB001900237B614402939A00086835
:10D37000A368D050029B01332373337B5A1E95421E
:10D3800005D00C481B1860469B001B580B6006AB71
:10D390001A730137FFB2C2E70135EDB2D1E7237945
:10D3A000216802989A00013350502371F1E7002060
:10D3B000AEE7C046FFFFFF3FF0B50A7804009BB020
:10D3C0000D000220012A08D04B88032A07D1A03B78
:10D3D00021499BB210008B4207D91BB0F0BD203B06
:10D3E0001E4A9BB203209342F7D81D4BAA88032004
:10D3F0009A42F2D80AAB009312AB02936A4600231A
:10D40000260013711373B8363378002B1DD104AF87
:10D410001822002138000BF044FD2B7838003B70B7
:10D4200033783B726B46FB606B883B82AB887B82B8
:10D430000AF0FEFC02000320002ACED1012358345A
:10D44000217810000B432370C7E769462000FFF7DF
:10D4500043FF0028DBD0C0E7603F0000E03F000052
:10D46000FF3F0000F0B59DB01E006B4604001A702F
:10D47000581C0622229D0BF0F8FC002E2ED032887C
:10D4800002AB1A8072885A80B2889A80F288DA8059
:10D490000CAB04AE049314ABB36027000023B93780
:10D4A000337133733B78002B1ED101223B78022766
:10D4B00008A9134058000B784E60BB430343002D6E
:10D4C0001AD12000323000789343104003430B7090
:10D4D000A38D0B81E38D4B81238E17E01A4B0293B2
:10D4E00096239B040393D3E731002000FFF7F4FE5B
:10D4F0000028DAD01DB0F0BDA87993431040034353
:10D500000B702B880B816B884B81AB8802AA684615
:10D510008B810AF0A3FC030000208342EAD006308E
:10D52000082BE7D006D80130042BE3D0834209D181
:10D530000420DFE70520112BDCD0044A9342F7D00A
:10D54000102BF5D00B20D5E732006400023200002A
:10D5500013B504680093A46813000A000149A047AA
:10D5600016BDC046FFFF000037B506AC257804683D
:10D5700001950093246913000A000149A0473EBDAC
:10D58000FFFF0000F0B587B00D00002469466F462C
:10D5900016004C800DAA0CA90988127839800193D5
:10D5A000A2421BD101004479F83194420DD90831CF
:10D5B0000F00083F3F88B7421BD130212032920034
:10D5C00012580132D27F0A4215D16A463100280032
:10D5D0000AF0B4FD002808D1062407E06A463100AD
:10D5E00028000AF0ABFD002800D00324200007B07B
:10D5F000F0BD0132D9E710210A4051424A410020D2
:10D6000002ACE3600CABA360174B01322680A27022
:10D61000A0809D4207D1FFF709FB03681B6998476B
:10D620000AF087FD0500210028000AF08BFD002488
:10D6300082B2A242DAD0112A13D00BD8082ACBD05A
:10D640006A46310028000AF079FD05240028CDD073
:10D65000023CCBE7054B9A4203D0054B9A42EFD1EF
:10D66000BAE70524C2E7C046FFFF00000330000010
:10D6700001340000F0B5050099B008002E240C918B
:10D6800000F00EF906ABE4181290220012A9012056
:10D690000AF052FD002802D0032019B0F0BD238803
:10D6A0000C9A0B9093830C9B0B9A1B7D934200D892
:10D6B000C6E06B791D2B01D90720EEE70C9B9B6917
:10D6C0000D930B9B0D9A9B009C586369002B07D10F
:10D6D000638B002B04D1631CDB7F022B00D1AAE0FB
:10D6E000200000F0DDF823000026283312900E966B
:10D6F0000D960F930F9B1B78B34221D9626AB3003A
:10D700009F58342206AB9B1800221A700023002178
:10D7100013AAD21801335170102BF8D1462206AB50
:10D720009B184A4A13A938001A800AF08AFD00287B
:10D7300003D07B690D937B8B0E930136F6B2D9E74C
:10D740006979A31C1F31C9006918621CDB7FD27F75
:10D75000089121002A310978002007912100293100
:10D76000097806910E9905910D990491217F0391F5
:10D77000218B0291618B01916169009112A90AF0DC
:10D78000E2FE002800D087E76B7907001A002032FC
:10D7900092001F335451DB005B5BE3836B790133F1
:10D7A0006B71230028331B78BB4244D98E239B0026
:10D7B000EB5C132B00D97FE7626ABB009E58002305
:10D7C000180013A90B70CA1801335070102BFAD12E
:10D7D0001E4B30004B820AF034FD0D90002827D1FB
:10D7E000300000F05DF88E2189006A5C738B1E3278
:10D7F000FF325200AA180292327F12900192328BAD
:10D8000012A9009272690D9800F09AF8002800D0D1
:10D8100042E78E2189006A5C531CDBB26B541D33D6
:10D820007A32FF3392005B005651EB185B88F3832A
:10D830000137FFB2B5E70B980130C3B20B9332E763
:10D840002B79002001332B7127E7C0460129000006
:10D8500070B505000AF05FFA04000620002C1CD108
:10D8600028007822210080300BF01BFB2800E930D3
:10D8700050222100FF300BF014FB28000822210069
:10D88000F8300BF00EFB054B2822E81821000BF0B6
:10D8900008FB8E2320009B00EC5470BD3A02000070
:10D8A000F0B5438A85B00193037805000126002B6B
:10D8B00035D0214A00241100831900931F4B1F68A3
:10D8C000A74210D00023981E012804D90098D65CE6
:10D8D000C05C86422CD10133102BF4D111235C4360
:10D8E00009190E7C1BE000980AF016FE2B78070041
:10D8F0000600002B01D112350095042C0FD0112504
:10D9000065430D4B10225D19009928000BF0ADFA0C
:10D910000023AB70EB70094B01342F741C6003AB18
:10D920009E705888019B00040343180005B0F0BDA9
:10D9300001341132C4E7C046E429002050270020FA
:10D94000F0B589B000930EAB1B8805000F001600E0
:10D95000019303220FAB002102A81C780BF0A1FA5F
:10D9600001230E201C40DB181C4302AB9C700E4BA5
:10D9700002AA138002AB06220021C0180BF091FA14
:10D9800003AC02AB63606B461B88109A23816B4625
:10D990009B88210028000397A38126610AF0B8FD27
:10D9A00080B209B0F0BDC04611110000F7B5FA26EB
:10D9B000B6007143009308AB1B78040008001449BB
:10D9C0001700019302F0C4FB85B230002580784334
:10D9D0000F4902F0BDFB6B461B8880B2A3806B46EB
:10D9E0001B796080A371032D01D804232380802339
:10D9F0002288DB019A4200D92380032801D804221F
:10DA0000628062889A4200D963802000FEBDC046D1
:10DA100071020000F0B58BB004AB9D1D0E230C22EB
:10DA2000039001912B804B7823495343CB181889DD
:10DA30002A00032306A90AF038FE00281ED1182761
:10DA4000019B1E4C5B782E885F4300933B0008339C
:10DA5000E318320006A9180002930BF0F7F900282A
:10DA60000FD10C22009B5343134AD318997A0223F7
:10DA7000194003D1E01918220BF013FA00200BB063
:10DA8000F0BDE01943680E4F002B00D00D4F182554
:10DA90000322009B06A96B43E250E3185E6032004C
:10DAA00002980BF0E2F9019B2A0059780398694328
:10DAB00038236118B847E1E76A2900207C27002055
:10DAC000A5EF01001DF00100F7B504000E006A4645
:10DAD0008178204801F040FA00283AD10C2362787E
