:020000021000EC
:10800000004000207DFF0100B9FF0100BBFF01001F
:108010000000000000000000000000000000000060
:10802000000000000000000000000000BDFF010093
:108030000000000000000000BFFF0100C1FF0100C0
:10804000C3FF010061AD010089FC0100C3FF010015
:10805000C3FF0100000000007DFD0100C3FF01001F
:10806000C3FF0100F1F70100EDFC0100C3FF0100B7
:10807000C3FF0100C3FF0100C3FF0100C3FF0100F4
:10808000C3FF0100C3FF0100C3FF0100C3FF0100E4
:10809000C3FF010049F2010025F20100C3FF010006
:1080A000C3FF0100C3FF010000000000000000004A
:1080B00000000000000000000000000000000000C0
:1080C00010B5064C2378002B07D1054B002B02D0AE
:1080D000044800E000BF0123237010BD20220020CF
:1080E00000000000F0A20200044B10B5002B03D0EA
:1080F0000349044800E000BF10BDC0460000000076
:1081000024220020F0A20200164B002B00D1144BB9
:108110009D46402292029A1A924600218B460F46B3
:108120001348144A121A10F05CFE0F4B002B00D0BB
:1081300098470E4B002B00D09847002000210400E8
:108140000D000D48002802D00C4800E000BF0CF0E4
:1081500047FA2000290010F0CAFB0CF02BFAC046A9
:1081600000000800004000200000000000000000A7
:10817000182200208C2A00200000000000000000CF
:108180001FB5012303481A00190001F033F805B0A8
:1081900000BDC0463C2200201FB501220023110073
:1081A000024801F027F805B000BDC0463C2200207F
:1081B00010B50400034B036040300DF092F920002D
:1081C00010BDC04678900200F0B585B01F000AAB24
:1081D0001B880600029115000393002F1CD0282055
:1081E00000F08EFE6B4604001989039BAAB200932F
:1081F0003B000DF015F9336821005B6830009847AB
:1082000000280AD0002C05D020000DF020F9200015
:1082100000F096FE024800E0024805B0F0BDC046FE
:1082200016FCFFFF17FCFFFFF0B52B4885B000F0F0
:1082300077F90027002302936B4608229B5E274DA7
:1082400003933EB2012332000399280000F0D2FFCD
:10825000FA200024400000F011FD23002200290034
:1082600000941F480DF020FA2300320003992800E3
:1082700000F0C0FFFA20400000F000FD2300009451
:108280002200290016480DF00FFA029B01330293D9
:10829000062BD1D10137062FCCD11026114C124B11
:1082A0000322012120000096FFF78EFF2000009698
:1082B0000E4B03220221FA24FFF786FF6400200000
:1082C00000F0DCFC002229000092130004480DF0AD
:1082D000EBF900F04BFDF2E7402200203C220020A9
:1082E000A02300201023002081810100998101003A
:1082F00070B50B4C200000F053F80A4D0A492A00D3
:10830000200010F00EFD0522084C110020000DF099
:10831000C4F92A000649200010F003FD70BDC046D4
:108320004022002000200020358301003C22002054
:108330005F560200EB23194A9B0010B5C2501C3354
:108340000400C0180DF0CDF8F1239B00E0180DF0EB
:10835000C8F884239B00E01801F08EFB2000C53094
:10836000FF3001F0ADF820008D30FF3001F04AFB06
:1083700020006530FF3001F045FB2000EC3002F0BA
:108380001DF82000D03002F063FB2000643007F0BD
:108390008DF8201DFFF70CFF200010BD7C9202001D
:1083A0001423F0B5040095B000931922182104306D
:1083B00002F026FD220027006432B437132110009A
:1083C000119207F07FF838000EF0DFF82200B83283
:1083D00010921E21002210980DF08EFD2000D0304A
:1083E00002F056FB2200EC3212920621494A129802
:1083F00002F008F820000026012365301A000096DC
:108400001121FF3001F00AFB20008D30009601237E
:1084100002221A21FF3001F001FB25002000C535A2
:10842000B530FF351A2302220121FF3002F0EEFBA6
:10843000109904233A22280001F0F2F884229200D5
:10844000A218139205231D22019300923B002A00DB
:108450001099139801F006FD96229200129BA01825
:1084600013992A0001F0D8FE99229200A018390031
:108470001C2202F0F1FD19239F220F93013B0E9362
:10848000013B0D93013B0C93013B0B93013B0A9382
:10849000013B0993013B0893013B0793013B069382
:1084A000013B0593013B0493013B0393013B029382
:1084B000013B01939200013BA01800930822013B6D
:1084C00007210DF021FDEB239B00E018390003F09C
:1084D00063F9F3239B00E0181D2102F0DDFBFD236F
:1084E0009B00E65011982670032110F030F923000C
:1084F0002200200008499C33A0321C6011605660A5
:10850000064A80305A610221012207F0E9FC20006E
:1085100015B0F0BD80900200315102001B510200E5
:108520000123F0B5067889B004001E4000D0ADE00C
:10853000FD20800500F0ACFC2300D033180002932E
:1085400000F080FA00F0A6F9282000F0D9FC050020
:1085500010300DF057F84E4B18202B6000F0D0FC77
:1085600007004C4B0460082231000C30069307963C
:1085700010F037FC06A9381D082210F016FC464BF7
:1085800029007B611223AF60EE60AB802E626E62C9
:10859000029802F0F5F9002805D028000CF057FFEA
:1085A000280000F0CDFC01232278642013432370BF
:1085B00000F064FB002523006533FF3318000393AC
:1085C0000DF078FA00283CD020008D30FF300DF0FF
:1085D00071FA002835D00A2D33D06420013500F01F
:1085E0004DFB0A2DE7D12D492D4800F027FCFD2732
:1085F000EB23BF009B00E618E359002B1AD100F0D3
:108600005DF8010004A800F087FD05A80CF002FE4B
:10861000012305AA04A900933000029B03F010F97E
:1086200005A80CF05EFF04A80CF05BFFED239B0097
:10863000E358E3512100039AEC31300003F0A6FA2D
:10864000B9E7FD2515491648AD0000F0F7FB66595E
:10865000002E1BD100F032F8010004A800F05CFDF0
:1086600005A80CF0D7FDEB239B00E01805AA029BA0
:1086700004A9009603F0E4F805A80CF032FF04A862
:108680000CF02FFFED239B00E358635109B0F0BDC0
:10869000FD030000A35102006351020000200020EE
:1086A000001C0020BFF34F8F024B034ADA60BFF378
:1086B0004F8FFEE700ED00E00400FA05F0B58DB045
:1086C00005AF19221549380010F06FFB0022144B3A
:1086D00005245A7180225205566E0122250001940C
:1086E000029203930199300007F058FD08000299A7
:1086F00007F0CEFC019B03996B430193029B361A52
:108700006B430293631E2C1B6C433C19225C1C1EA2
:10871000CA54E7D108000DB0F0BDC046C69C0200A7
:10872000BA290020F0B597B018220021060010A841
:1087300010F057FB132110A810F048F9032110A8DE
:1087400010F013FA4C4B1B68002B00D10133DBB245
:1087500002934A4A012300210BA807F0FBFA484B79
:108760009E4200D9002672B6464B64211D68464BD6
:1087700030000793052407F015FD6043503028189A
:1087800008900A21300007F00DFD0A2107F0F0FDE6
:10879000614350316918099130000A2107F0E8FD62
:1087A000802361430024503169189B010A91019391
:1087B000029B002B5DD0002500272E1F07AB9B19C5
:1087C0000593032C03D1802300249B01019307AB65
:1087D0005B592E4A03936300D318049300231900B6
:1087E00006205843049A16187678B4466246039ECB
:1087F000B25C10269446049A105C6246064116420A
:1088000002D00120984001430133092BE8D1C9432C
:108810001F4B059A090119401268039B934225D109
:10882000312F23DC00210BA810F071FAFA23159ADE
:108830001199DB00106801421BD0013B002BF9D1DC
:10884000019B01345B000193FA230137E4B25B0022
:108850009F42B6D10435102DAED1074B1B68002BBB
:10886000A6D0029F013FFBB20293A1E7019B1943EF
:10887000D9E7FFF717FFC0463C260020F0FF0000B5
:10888000E703000004200020159D0200DF9C020089
:10889000F01F0000F8B50023124C23600CF0DBFC45
:1088A000002808D0042120000CF0D1FC002801D0C1
:1088B0000D4B2360F8BD0122A12704250B4B0C4969
:1088C0001A602268FF0048604E68002EFCD0DE5916
:1088D0001202013D3243002DF5D1226001225A607F
:1088E000E8E7C04638260020ED5EBC0B00D0004013
:1088F000FCD000400B4B70B51C68002C10D0656D8F
:1089000000F0C6FBA36C002901D1834206D82000E9
:108910000CF0D4FC044920000CF0BEFC2C00ECE769
:1089200070BDC0464426002064260020F0B593B0F8
:1089300007932A4B04AC1E68049005910692002E02
:108940004AD0274B258867881C6800230293002C97
:108950002ED0636D23480393A36C9AB2A36C1B0CB7
:1089600099B2854214D12048824211D1002B01D006
:10897000B9420BD1029B002B08D120000CF09EFCC9
:108980001A4920000CF088FC01230293039CDEE7C7
:10899000002A01D09542F9D1002B01D0B942F5D17E
:1089A00020000CF08BFC114920000CF075FCEDE769
:1089B0000F4BEB18012B0FD910233A00009329001D
:1089C0000C4B08A80CF02CFD336808A99B683000FC
:1089D000984708A80CF03BFD13B0F0BD40260020DE
:1089E00070260020FE030000FF0300006426002024
:1089F00002FCFFFF2D89010010B572B60B4B1C68FD
:108A0000002C08D020000CF059FC0023E364084B34
:108A10002000E36310BD62B65C2000F071FA5C22B6
:108A20000021040010F0DDF9EFE7C04668260020C1
:108A300000400020024B1878012318407047C046C0
:108A4000C0290020F7B50600FFF7F4FF051E33D15B
:108A50001A4C2660FFF7D0FF194B1A4918600CF02A
:108A60001BFCFFF7C9FF184B1860184B4363184BEA
:108A70008363206800280ED0C027164E2A003300DA
:108A800015490097FFF7A0FB009733002A00134910
:108A90002068FFF799FB0C2000F032FA0023838056
:108AA00083710F4B03600F4B836000F009FB0123C0
:108AB0000D4A11780B431370F7BDC04640260020C5
:108AC00074260020642600206C260020FC3F002035
:108AD000835302002D890100FF030000FE03000004
:108AE000A0900200F5880100C0290020F7B506001B
:108AF0000D0017000193002802D100242000FEBDC4
:108B00000029FAD0FFF778FF041EF6D0074B019A30
:108B10004363066045608760054B002A00D0054B23
:108B2000A363054920000CF0B7FBE7E7FC3F0020FA
:108B30004D5302006B53020064260020024B18685C
:108B4000434258417047C04664260020002310B5B8
:108B500004499C006258002A01D00133F9E76050B3
:108B6000100010BD4C260020002310B5044A9900C7
:108B70008C58844201D00133F9E70020885010BDA1
:108B80004C26002010B50024084BA200D058002825
:108B900002D003685B6898470134062CF4D1044B7B
:108BA0001B68002B00D120BF10BDC0464C26002002
:108BB00064260020F8B5FFF73DFF00281BD0294DA3
:108BC0002C68E36CDA0717D502263343E3640423E9
:108BD000254F3868C26C1343C364636BC3630CF0E6
:108BE00093FB3868416C03F0CEFB2868C36C3342BA
:108BF00001D003F002FCF8BD1C4F1D4E3A683168ED
:108C0000002A1ED129602A688A4208D11B0706D58E
:108C10002C60FFF7B7FF3B68002BFAD02B60296868
:108C20008C42E8D03368994214D1124B4B63124BFB
:108C30008B6320000CF068FB2968626C4B6C200091
:108C40000DE0206DB84203D1606D002800D0020015
:108C50002A60D8E79C42ECD1002210004B6C03F054
:108C600051FBC8E774260020482600206426002017
:108C70006C260020FC3F00208353020070B50500E5
:108C8000FFF7D8FE002803D128000FF062FF70BD67
:108C90000C4B1C68E36CDB0706D5FFF7ADFE0A4BF7
:108CA0001860002800D0040000F0F2F92D18A56427
:108CB00020000CF003FB054920000CF0EDFAFFF753
:108CC00079FFE4E77426002048260020442600208F
:108CD000F0B51E4B1E4F1C683B6885B00600039123
:108CE000002B30D0FFF7A6FE00282CD0E36CDB076A
:108CF0000ED5FFF781FE174B051E186008D00CF04B
:108D0000DDFA154928000CF0C7FA2C00FFF752FFD6
:108D1000039B20001B043343A3640CF0CFFA200014
:108D20000E490CF0B9FA0E4B0024F318012B07D9A9
:108D3000C0230093039A0B4B31003868FFF744FAC5
:108D4000200005B0F0BD084CFAE7C04674260020AC
:108D5000402600204826002064260020702600209F
:108D600002FCFFFF2D89010016FCFFFF10B5FFF785
:108D700061FE002809D0054C20680CF09FFA0449D8
:108D800020680CF089FAFFF715FF10BD742600204B
:108D900068260020F7B507000D0000282ED0FFF749
:108DA00049FE00282CD00724164E3068C36C1C40A6
:108DB00007D0154A290038000CF097FA002420004B
:108DC000FEBD03F002FB02213268D36C1940019111
:108DD00003D003218B43D364F1E701242343D364FD
:108DE0002800B8473268D36C1900A143D164019CB4
:108DF0005B07E4D528000CF0B0FAE0E7034CDEE7AF
:108E0000034CDCE7742600205B53020017FCFFFFD5
:108E100016FCFFFF020010B5014B12CB12C210BDB1
:108E200078260020034B1A68034B1A607E225A6092
:108E30007047C046042000207826002070B5104DF1
:108E40002B78022B18D0814218D90B1A072B15D971
:108E50000C00032304431C4010D172B62A78094B3E
:108E6000D200D050981841600CF091FA2B78013361
:108E70002B7062B6200070BD0348FCE70348FAE798
:108E8000C12900208026002013FCFFFF17FCFFFFF4
:108E900070B50021041C07F08DFA002828D1FE21AE
:108EA000201C890507F090FA002821D104300BF02E
:108EB000BBFB05000F48401B08F066FA211C07F0B9
:108EC00003FF07F0B5FA03239843040028000BF0D2
:108ED000B5FB20000BF0A8FB002804D1203C002C9F
:108EE000F7D1054803E00119FFF7A8FF002070BD86
:108EF0000248FCE70038002013FCFFFF17FCFFFFCF
:108F000070B5060000250C4B1B78AB4209DD0B4900
:108F1000EB00C91830000CF042FA041E09D10135EB
:108F2000F1E730000BF080FB041E02D11420FFF7A4
:108F3000F9FB200070BDC046C1290020802600201A
:108F400070B5002813D00D4B0D491C7800239C42AE
:108F500010DDDA00555885420AD28A1852688242DA
:108F600006D98023043802681B061343036070BDD2
:108F70000133ECE70BF062FBF9E7C046C1290020A2
:108F80008026002070B5051E14DD0B4E0B4C336897
:108F9000002B02D020680FF057FCFA212068002433
:108FA000074B89008361C462694335600FF054FC4C
:108FB000200070BD0348FCE790260020C02600205A
:108FC0006D90010017FCFFFFF8B5114F06003D68DA
:108FD000002D0AD13020FFF793FF040006F096FA27
:108FE0000C4BA5612360E5623C600B4D2B68002BA8
:108FF00009D11020FFF784FF04000FF0EEFB2000E2
:109000002C600FF0C4FB3000FFF7BCFFF8BDC0467A
:10901000C026002018960200BC260020014B1868CC
:109020007047C0469026002070B50D4C2368002B79
:1090300003D00C4B1B68002B02D10620FFF7C4FFA6
:1090400020680FF0BBFB02000749C3170D684E688C
:109050005219734120680A604B600FF0B5FB70BD78
:10906000BC260020C02600201822002010B5FFF7E3
:10907000DBFF0024054BA200D058002802D0036873
:109080001B68984701340A2CF4D110BD94260020A7
:1090900010B5FFF7C9FFFA22034B92001868596810
:1090A000002307F0A5F910BD1822002010B5FFF726
:1090B000BBFF024B1868596810BDC046182200203B
:1090C0000B4B10B51B680400002B03D0094B1B6829
:1090D000002B02D10620FFF777FF0023064A9900F4
:1090E0008858002801D00133F9E78C5010BDC046E4
:1090F000BC260020C026002094260020002310B5A6
:10910000044A99008C58844201D00133F9E70020C9
:10911000885010BD9426002010B50400002902D00C
:109120000B78002B03D1034B2360200010BD0CF003
:10913000DFF9FAE7B0900200F8B504000E00150060
:1091400000290AD00B78002B07D0002A05D0080090
:1091500097B20FF086FE874203D90B4B23602000A5
:10916000F8BD681DFFF7CCFE20600CF050FB2368B3
:109170002A005F8023683100181D0FF016FE236857
:109180005D1900232B71EAE7B0900200014B0360E8
:109190007047C046B090020010B50548054C2060ED
:1091A0000CF038FB044A054920000FF0BAFD10BD51
:1091B000B0900200C426002000200020E3540200EA
:1091C000084B73B51C680500002C0AD00100266806
:1091D0000831082268460FF0E8FD0CCD3168200008
:1091E000884773BDC8260020014B03607047C04606
:1091F000B890020030B500684488A1420CDA858836
:10920000AA4209DA002907DB002A05DB544340188B
:1092100000198371002030BD0048FCE717FCFFFFF8
:10922000F0B5070085B00E001D0000291FDD002BE2
:109230001DD00468638803938B4200DD0391A388EB
:109240000293934200DD0292002306340193019BB6
:10925000029A93420EDA29002000039A0FF0A5FD2E
:109260003B68AD195B88E418019B0133EEE70248C7
:1092700005B0F0BD0020FBE717FCFFFFF8B50400C8
:109280000D0016001F00002901DB002A02DA0E4B38
:109290002360F8BD100048430630FFF731FE206020
:1092A0000CF0B5FA23685D8023689E80002F06D0FD
:1092B0003B00320029002000FFF7B2FFE9E7200061
:1092C0000CF0E2F9E5E7C046B8900200F0B5060000
:1092D00087B00D1E04D1244B0360300007B0F0BDF1
:1092E00000200F000400010001903B78002B1AD0F1
:1092F0003022524294469C446246092A11D90A2BD4
:109300000AD1019B241801330193A14200DA210004
:10931000002004000137E8E70028FBD001340020DA
:10932000F8E70120F6E76A46928809B212B23000E7
:10933000FFF7A4FF33689C1D03AB1F002A78002AA7
:10934000CBD011003039092903D81A700133013507
:10935000F4E700221A70BB42F9D938000FF005FD7E
:109360003B0020700134F2E7B8900200F0B5040031
:1093700089B006A80E0002921D00FFF74BFD23687E
:1093800002995A88914235DA9B889D4232DA1F2E23
:1093900030D9079B01939E422CDC052300227343A6
:1093A0000393069B0493039B04999B18A03BCB5CFF
:1093B00000210593AE18029BCF18236858880190AE
:1093C00087420EDA9888B0420BDDDB1910270F4177
:1093D000019870431B1805980740781E87417F420B
:1093E0009F7101310529E6D10132052ADBD1002028
:1093F00009B0F0BD0048FBE717FCFFFFF7B50468B4
:10940000070063880E1E01931EDD994218DA0023BF
:10941000063400933B68009A9B889A4212DA019BBB
:10942000A1199D1B2A0020000FF0BFFC601931001C
:109430000CF01CF93B685B88E418009B0133E8E7FB
:109440000CF022F9002000E00048FEBD17FCFFFFF1
:1094500010B50548054C20600CF0DCF9044A0549BC
:1094600020000FF05EFC10BDB8900200CC2600205A
:10947000002000205F56020010B5054C012120009D
:109480000CF0BCF9034A044920000FF04AFC10BD5F
:10949000D026002000200020B95702000388074A88
:1094A00010B50120934208D0834202D00020DB0790
:1094B00003D41E20FFF736F9002010BDFFFF000087
:1094C00010B50400034B08330360FFF74DFB200089
:1094D00010BDC04600910200FA2270B54389920087
:1094E0005343314A31491400050038348B421BDCA8
:1094F0002F498B4218D82F49083C8B4214D82E494B
:10950000083C8B4210D82D49083C8B420CD82C4982
:10951000083C8B4208D82B49083C8B4204D82A4986
:1095200014008B4200D90834284B2A7B1E1D042AC4
:1095300003D89E1C022A00D81E00FA212068890048
:1095400006F0A6FD337868812B7300222A212800BB
:109550000CF084F9002801D01D4870BD10222B2189
:1095600028000CF07BF90028F6D101222D212800DB
:109570000CF074F90028EFD101222E2128000CF004
:109580006DF90028E8D172780E2128000CF066F9F8
:109590000028E1D1012223792A211A4328000CF066
:1095A0005DF90028D9D0D7E7C090020000C40900B7
:1095B0000071020080380100204E000010270000DA
:1095C00088130000C4090000E2040000F59E0200B8
:1095D0000EFCFFFF7FB515000F226A4404001E0039
:1095E0001170002D16D0002B14DD0123018900938A
:1095F000006B01F041F9002802D0074804B070BDAB
:109600000090218933002A00206B01F0EBF800283C
:10961000F4D0F2E70148F1E70EFCFFFF17FCFFFF73
:10962000F7B50600002501931E4B143608330400DD
:10963000036085808571C581058245820F00009297
:109640002900182230000FF0CCFB1C2130000FF055
:10965000BDF96B469B880221A3806B461B882200C4
:1096600023811423A5712173A563A58763813E32ED
:10967000137827638B43F1310B40137023009572ED
:1096800095810135221DD5870833A21DD58720007D
:10969000DD87FFF721FF002802D1A3791D43A571C3
:1096A0002000FEBD0091020030B50425837987B00B
:1096B00004002B4204D1FFF749FAA3791D43A57199
:1096C000A36AA2691B6800251A4208D106236A46CC
:1096D00001212000FFF77EFF051E03D0114D280059
:1096E00007B030BD6B460222042069469A561856D0
:1096F000237BD2005A43228202220978C00049B259
:10970000C900594343436382A379E1819343A37121
:1097100020000CF0B1F80123A1881A0002A80BF078
:109720007BFFDCE70EFCFFFFF8B50400FFF7BCFF92
:109730000E22A35E794F5B42BB4251DA23003E33D7
:109740001B789B074CD50125210028003E310B7862
:109750005A08904302000220AA40834313430B702F
:109760002000FFF7A1FF1022A35E5B42BB4248DA54
:1097700023003E331B785B0743D5012521002800D9
:109780003E310B789A0890438200042083431343B0
:109790000B7026002000FFF787FF1222A35E4836D9
:1097A000BB423EDA23003E331B781B0739D521002C
:1097B00001223E310B78D80882430820D20083432F
:1097C00013430B703378032B3BD80133DBB2337078
:1097D000012B00D08DE0230000224A331A8030E0B4
:1097E0002000FFF761FF0E22A35EC8225B425200F9
:1097F00000259342B4DD23003E331B789B07A2D59E
:10980000AEE72000FFF750FF1022A35EC8225B42A4
:1098100052009342BDDD23003E331B785B07ACD57D
:10982000B7E72000FFF740FFC8231221625E5B000C
:109830009A4204DD23003E331B781B07B7D5002D69
:10984000C0D13278002A14D02100270001254A31E6
:109850000B883E3701339BB20B803878AC4605400D
:1098600055D01D2B05D963469843002338700B80D3
:10987000337020000CF06CF8294A0723904244DD35
:109880002000FFF711FF0E23E25E264E5242032313
:10989000B2423ADBC8252000FFF706FF0E23E25E46
:1098A000AD0052420423AA422FDC2000FFF7FCFE49
:1098B0001023E25E02235242B24226DB2000FFF771
:1098C000F3FE1023E25E01235242AA421DDC200077
:1098D000FFF7EAFE1223E25E0523B24215DB200009
:1098E000FFF7E2FE1223E25E0623AA420DDC00230C
:1098F0000BE0042BA5D122003E321178033B0B4331
:10990000137000234A3423800B331800F8BD092B51
:10991000AFD9013A0D803270ABE7C04670FEFFFF51
:10992000FF700200E0FCFFFF70B5C369C1681A68F0
:10993000451D8AB00400EB7F114255D0002B58D151
:10994000EB7F082B0DD90122A379134209D11343D0
:10995000A371A188130006A80BF05EFEFFF798FB29
:109960002062EB7F012B23D80123A2791A421FD05A
:109970000025A188A571022202A80BF04DFEA31DAF
:10998000DE7F012E14D1FFF783FB2B00226A801AA1
:10999000994100900191019BA188AB4203D1174BE3
:1099A000009A9A4227D90123042206A80BF034FE1C
:1099B0000322A3791340012B14D1FFF769FB002385
:1099C000226A801A9941994202D10D4B984209D9D5
:1099D0000223A279A1881343A3710522012306A8BB
:1099E0000BF01AFE0AB070BD0B2BA9D80133EB7730
:1099F000A6E7013BFBE733000322D6E7E7030000BD
:109A0000DB05000010B50400034B08330360FFF7CB
:109A100075FB200010BDC04618910200F0B507008C
:109A200000250E0085B002930AAB1B78083703931C
:109A3000104B040008330360019285808571290072
:109A4000182238000FF0CDF9039A310038000EF0DB
:109A5000C2FF6B466A469B88127AA380A31DE671FB
:109A6000DA77631D25622000DD77FFF729FB2000F0
:109A700005B0F0BD1891020010B50400034B083387
:109A80000360FFF771F8200010BDC0468891020006
:109A90007FB515000F226A4404001E001170002DCE
:109AA00016D0002B14DD012301890093C06B00F058
:109AB000E3FE002802D0074804B070BD0090218961
:109AC00033002A00E06B00F08DFE0028F4D0F2E7AE
:109AD0000148F1E70EFCFFFF17FCFFFF002330B544
:109AE00085B003AC21700189009305000133220089
:109AF000C06B00F0C1FE002802D0094805B030BD9F
:109B000020802989009002232200E86B00F06AFE81
:109B10000028F2D1237860781B02184300B2EDE7E9
:109B20000EFCFFFF13B56B46DC1D002322002370E3
:109B30000133FFF7ADFF002801D1207816BD0148A1
:109B4000FCE7C0460EFCFFFFD0B504000BF0DAFFC7
:109B5000E268A369981A09F065F806000F00236906
:109B6000E069C01A09F05EF832003B0009F0A8FB7A
:109B70000022104B08F066FA0F4A104B07F060FF06
:109B800009F0DCF80021041C06F00AFC002804D0CF
:109B9000201C0B4906F026FD041C201C09F07CF853
:109BA00002000B000020074908F0BEFC09F004F891
:109BB000D0BDC04600806640EA2E4454FB210940D7
:109BC0000000B44300807640F0B5050085B0006C1D
:109BD0000BF05BFF061C286C0BF04EFF0221071CEC
:109BE00028000BF0C0FF0221039028000BF0CDFFEE
:109BF00007F080FB0221041C28000BF0D8FF07F0BF
:109C000079FB051C301C09F01DFB0290301C09F08B
:109C1000DBFA0190381C09F015FB061C381C09F012
:109C2000D3FA071C039807F065FB391C07F04CF8C2
:109C3000311C071C201C07F047F8029907F044F874
:109C4000011C381C06F0CEFC311C071C281C07F038
:109C50003BF8019907F038F8011C381C06F0C2FCEB
:109C60000299061C281C07F02FF80199051C201CDE
:109C700007F02AF8011C281C07F058F9311C09F0DC
:109C800023FB0D4907F020F809F006F80B4A0C4BAE
:109C900007F0D6FE09F052F80021041C06F080FB04
:109CA000002804D0201C044906F09CFC041C201C45
:109CB00007F000FB05B0F0BD0000B443EA2E4454A9
:109CC000FB21194070B50022102104000BF00CFF9D
:109CD0001B4D00282DD1032608212000FFF722FF6D
:109CE000A84226D0304226D1FA21638989005943FF
:109CF0005023144AD518D058884204D3D518083BAD
:109D000018000830F7D1FA212868890006F0C0F958
:109D1000A0226081112120000BF0E6FE002808D16E
:109D200001222B7910211A4320000BF0DDFE0028C0
:109D300000D0034870BD6420FEF7A0FFCCE7C0460A
:109D40000EFCFFFF309102007FB5042583790400EB
:109D50002B4218D102260BF0D5FEA379A188B3437C
:109D60002B43A3710622012368460BF055FCA07912
:109D700003003040AB43A37143425841034B404280
:109D8000184004B070BD0248FBE7C04614FCFFFF5A
:109D900015FCFFFF10B5837904005A070DD49B070B
:109DA00001D4FFF7D1FF236C2000002B02D0FFF776
:109DB0000BFF10BDFFF7C8FEFBE70148F9E7C046FF
:109DC00015FCFFFF70B5466C86B001AC0500019133
:109DD0006260A360002E0CD00B4905A8FFF79CF928
:109DE0000C23220005A930000CF00EFC05A80BF096
:109DF00078FB2B000C3307CC07C30223AA7913434B
:109E0000AB7106B070BDC046FB9E0200642330B546
:109E100004000281438185B08180FFF753FF022255
:109E2000A379606C9343A371002813D00C490CF004
:109E3000B2FB051E0ED001000C22103101A80EF05D
:109E4000B4FF20000199029A039BFFF7BBFF280093
:109E5000FFF776F80123A2791343A37105B030BD53
:109E6000FB9E0200F7B5009308AB1B88040001932A
:109E700009AB1D8800230F0016000D4A83800832AD
:109E800083710260C360036143618361C3610362E4
:109E90001D2124300BF01BFE009BE7632664290084
:109EA00020006364019AFFF7B1FF2000FEBDC046A9
:109EB0008891020082B0F0B50400A5B064202B9315
:109EC0002A920EF046FE04220C2109A802F0F6FAAE
:109ED0002422CC491BA80EF068FF052206A8110019
:109EE0000BF0DBFBC84907A8FFF7F0F9A06800F00A
:109EF00081FBA568C54918A8FFF70EF9782218A9B3
:109F0000280000F015FC18A80BF0EBFA6E25642071
:109F1000013D0EF01EFE002DF9D1A06800F06AFB95
:109F2000A0680BF0E4FF012160680BF025FD012122
:109F3000070060680BF033FD06000A200EF009FEF2
:109F40000022B34B03929F4210DB013203923A008E
:109F5000C8320BDBC822042192000391974205DC32
:109F600003220392C82F01DC013A039200279E428C
:109F70000CDB33000137C83308DBC82303379B00F1
:109F80009E4203DC013FC82E00DC013F06A80BF017
:109F90007BFB0026032373431BA9CA189078002873
:109FA00005D0C95C5278FF2306A8FFF723F90136D4
:109FB0000C2EEFD16B463AB20C21595E06A8FF2356
:109FC000FFF718F90023A06800931A00743006A95F
:109FD0000BF06AFB002304930323049A0398534372
:109FE0001BAA995C814237D1D31805935B78BB4299
:109FF00032D1059B9E78002E2ED1310020680BF0C7
:10A00000B2FD07F077F93200031C290009A80CF013
:10A0100084FD310020680BF0B8FD07F06BF90122D8
:10A02000031C290009A80CF078FD310020680BF012
:10A03000BEFD07F05FF92900031C022209A80CF0FD
:10A040006CFDFE2303229B05290009A80CF065FD89
:10A050000123059AED189370049B013304930C2B94
:10A06000BAD164200EF075FD0B2D00DC5BE709A86A
:10A070000CF03FFD012201000CA802F01FFA0025A0
:10A0800009A80CF036FDA8423CDD2900002209A8F1
:10A090000CF031FD0022061C290009A80CF02BFD54
:10A0A000011C301C06F010FE2900061C012209A824
:10A0B0000CF021FD0122071C290009A80CF01BFD52
:10A0C000011C381C06F000FE311C06F08BFA29003A
:10A0D000061C022209A80CF00EFD02222900071C12
:10A0E00009A80CF008FD011C381C06F0EDFD311C20
:10A0F00006F078FA2900031C00220CA80CF00DFDD4
:10A100000135BDE709AA1100012318A80CF01FFDB5
:10A1100018A90FA80CF078FD18A80CF00FFD0CAAD8
:10A1200009A912A801230CF012FD002312AA0FA9FD
:10A1300015A80CF00CFD002215A811000CF0DBFC9A
:10A140000022061C012115A80CF0D5FC0022051CDC
:10A15000022115A80CF0CFFCFC21071C8905301C3E
:10A1600006F0B2FD07F0A6F8FC210600189089055C
:10A17000281C06F0A9FD07F09DF8FC2105001990A8
:10A180008905381C06F0A0FD07F094F82A000300AA
:10A1900031001A902068FFF715FEA0680BF0A7FEAB
:10A1A00007A908A8A5680BF067FA0022194B0092CE
:10A1B00008A901932800130000F05EFA08A80BF02C
:10A1C0004EFAFA2080000EF0C4FCA0680BF08FFE5F
:10A1D00015A80CF0B3FC12A80CF0B0FC0FA80CF002
:10A1E000ADFC0CA80CF0AAFC07A80BF038FA06A8E6
:10A1F0000BF035FA09A80CF0A1FC25B0F0BC08BCA6
:10A2000002B01847069F02002A9F02006F9F0200BB
:10A21000E0FCFFFFDC050000F7B583601D4B050087
:10A220001F6801604260002F31D02820FEF768FED1
:10A23000040010300BF0E6F9174B18202360FEF7EE
:10A240005FFE00220600154B0192056008320021D6
:10A250000C3000930EF0C5FD08226946301D0EF04B
:10A26000A4FD0F4B00227361C223A3803B68E26010
:10A27000A660226262625B6821003800984700286D
:10A2800005D020000BF0E3F82000FEF759FE28006F
:10A29000FEBDC046C826002005000600B59E010090
:10A2A000C75B0200F0B5040085B0637A9C46002BC2
:10A2B00004D120000BF0B2FC05B0F0BDA37A266FEC
:10A2C00001931023019AF35600259B1801229A400E
:10A2D0002900F36803920293029BAB4231DDB3681D
:10A2E000019A6B439B1872695B00E77AD3181A785E
:10A2F0005878E379012F14D15F1E3F1A10003A00FD
:10A300005B004343606F8218D3189B79634500DD7F
:10A310006346627B1A4202D00123AB4019430135E8
:10A32000DAE7022F05D15F1EBA1A277A013F381AE1
:10A33000E6E7032FE4D1277A013FBF1A0200380075
:10A34000DEE71123C943F356606C99402369194035
:10A35000039B19430EF0DBFCA27B072AACD8637B7E
:10A360000C495B006373531CDBB290004158A3732C
:10A37000022A03D808000EF0E1FB96E7064B200006
:10A38000236300236363054BE462236414300EF0FF
:10A3900063FA91E7A0910200A5A20100075C020008
:10A3A00010B50400044B03600EF04EFA200005F0D7
:10A3B000C3F8200010BDC0461896020010B5040076
:10A3C0000E4B08330360FEF799FE200074300BF04B
:10A3D00046F9200060300BF042F9200058300BF0B5
:10A3E00080F8200050300BF07CF82000044B143033
:10A3F0006361FFF7D5FF200010BDC046C091020089
:10A400004C960200F8B500250400324B85800833D5
:10A4100003608571143016000F0005F077F82000F6
:10A420002D4BE562636125645030FEF7AFFE2000DE
:10A430005830FEF7ABFE20006030FEF7D5FE20005E
:10A440000423F25E33682667590009B274300BF0BA
:10A4500024F93368226FE371736801262372102395
:10A460006581A7802561D35691685918994204DD0A
:10A470003000984001330543F8E711230120D356FB
:10A48000D1685918994206DD02009A4026690133C5
:10A4900032432261F6E71420FEF732FD22690021E3
:10A4A0002A430123060005F055FCFF2322006372B6
:10A4B0000133A381002348326664A3732000137024
:10A4C000A366FEF7FDFD0123A27920001343A371CB
:10A4D000F8BDC046C09102004C960200F0B5437A28
:10A4E00085B00400002B04D120000BF097FB05B0D1
:10A4F000F0BD0122837A11009C461023066F0025CF
:10A50000F35603926344994002912900F368019342
:10A51000019BAB422CDDB36872696B4363445B0003
:10A52000E77AD3181A785878E379012F10D15F1E93
:10A530003F1A10003A005B004343606F8218D31843
:10A540009B79002B02D0039BAB4019430135DFE719
:10A55000022F05D15F1EBA1A277A013F381AEAE79F
:10A56000032FE8D1277A013FBF1A02003800E2E743
:10A570001123C943F356606C994023691940029B2B
:10A5800019430EF0C4FB667AB31EDBB2FC2B14D861
:10A59000FEF744FD0B4B0500236300230A48636369
:10A5A0000A4BFF21E4622364704305F0FBFD2900A0
:10A5B0004143200014300EF04FF9637A012B00D98B
:10A5C00095E791E71D5C0200B6030000075C0200FE
:10A5D0001FB5012381881A0068460BF01DF801237E
:10A5E00003491A0068460BF017F805B000BDC046D5
:10A5F000FE0300001FB5030048331A780400002A48
:10A600000DD000221A70012381881A0068460BF0D1
:10A6100003F8012304491A0068460AF0FDFF2000F0
:10A6200074300BF031F81FBDFF03000010B5483047
:10A630000378002B06D00378012B03D001210248B8
:10A640000AF07BFE10BDC046FF03000010B50121DB
:10A65000040006200AF071FE064B984208D14834E7
:10A660002378002B04D02378012B01D020BFF7E7FB
:10A6700010BDC04616FCFFFF73B5079C0500002CFB
:10A680001CDB060048363078002802D030780128DC
:10A6900016D106981BB2C0B20090280012B27430D6
:10A6A0000BF002F8002C07D02B004A331C8000244A
:10A6B00007234C352C803370200076BD014CFBE71E
:10A6C000014CF9E717FCFFFF12FCFFFFF0B587B064
:10A6D0000D9C06000F0002920393002C20DBFFF775
:10A6E000A5FF330048331D78EDB2002D1AD1390093
:10A6F00005A80AF0C1FF0C9B01940093029A039BEA
:10A7000005A93000FFF7B8FF05A80AF0A8FF002C44
:10A7100003D03000FFF79AFF2C00200007B0F0BDF7
:10A72000014CFAE7014CF8E717FCFFFF11FCFFFFB3
:10A73000F8B50400171E1DDD060048363378002BDF
:10A7400002D03378012B17D12200E3795632013B36
:10A75000137023000025200054331D8050300AF070
:10A760001FFF23004A331F80022328004C3425801A
:10A770003370F8BD0148FCE70148FAE717FCFFFF1A
:10A7800012FCFFFFF7B505000F00161E18DDFFF7DE
:10A790004DFF2B0048331C78E4B2002C12D1390055
:10A7A00001A80AF0F5FE320001A92800FFF7C0FF5A
:10A7B00001A80AF096FE2800FFF748FF2000FEBD22
:10A7C0000148FCE70148FAE717FCFFFF11FCFFFF17
:10A7D000FF2902D84172002070470148FCE7C046BB
:10A7E00017FCFFFFF0B51F0085B00AAB1B78040013
:10A7F000039300933B000D0016000EF053F8002861
:10A8000033D0237D082B2DD8236800221900FC317A
:10A810008A62A021C9005A50154905205A500138B2
:10A82000C046C046C046C046C046C046C046C046F8
:10A83000C046C046C046C046F1D1236801325A50D6
:10A84000A0210432C9005A5004F070FF039B32006B
:10A85000009329003B0020000EF024F8237D0133F3
:10A860002375CCE7034805B0F0BD2075FBE7C04673
:10A87000FC0F00000EFCFFFFF0B51F0085B00AAB17
:10A880001B780400039300933B000D0016000DF0AD
:10A89000F1FF002833D0237D082B2DD82368002218
:10A8A0001900FC318A62A021C9005A5015490520BF
:10A8B0005A500138C046C046C046C046C046C04691
:10A8C000C046C046C046C046C046C046F1D1236817
:10A8D00001325A50A0210432C9005A5004F026FF18
:10A8E000039B3200009329003B0020000DF0C2FFC3
:10A8F000237D01332375CCE7034805B0F0BD2075F7
:10A90000FBE7C046FC0F00000EFCFFFFF8B50D1E74
:10A9100030D000260227C468002C28D0AA88A3883B
:10A9200053403B4204D13A4204D1AB883B4219D058
:10A93000646AF1E7A968A0680CF0CAF80028F4D0AE
:10A940002B88002B02D022889A42F1D16B88002BF1
:10A9500002D062889A42EBD1A288074B013613439A
:10A96000A380E5E7A368AA689342E1D1E8E7200065
:10A97000002E00DC0148F8BD0080FFFF17FCFFFF40
:10A98000F0B5060085B00D1E59D00127C468002C13
:10A9900022D00221AA8800230A4202D0A3885B08A1
:10A9A0003B40226829688A4210D1A068A968002B20
:10A9B0000AD00CF08DF8002808D0A3881AB2002A1B
:10A9C00006DB204805B0F0BD8842F6D0646ADEE7B9
:10A9D0005B045B0CA380F4E7F0682A88002807D1A9
:10A9E000F5600123184968460AF016FE0020E9E7E1
:10A9F000010003001C88944206D25C6A1900002CF6
:10AA00000DD02300F6E723001C88944207D15F880D
:10AA10006C88A74203D25C6A1900002CF3D18142F2
:10AA200009D10B889A4204D305D148886B88984293
:10AA300001D96962D4E74B6A6B624D62D1E7034882
:10AA4000C0E7C04616FCFFFFFD03000017FCFFFF38
:10AA5000064B10B51A00040008322C330260436024
:10AA60000430FEF781F8200010BDC046D8910200E6
:10AA700008B4024B9C46043808BC604751AA010048
:10AA800008B4024B9C46043808BC60472F600200A3
:10AA90000C4A002311002C32083110B50381837257
:10AAA0004260C3600361436143830160040004307A
:10AAB000FEF74CF8044B1A68002A00D11C602000F5
:10AAC00010BDC046D8910200C8260020F7B50E0080
:10AAD0000125C4680192002C36D0238832889A421E
:10AAE00001D0002B23D1638872889A4201D0002BB9
:10AAF0001DD1FDF79FFF0123002806D0C022A388A7
:10AB00001340C03B5A425341DBB2019A934219D1E0
:10AB1000A7883BB2002B15DB10223100A0180EF0E5
:10AB200044F940231F4204D020000BF089FA646AE4
:10AB3000D1E7FDF77FFF0028F6D021000348FEF79C
:10AB400029F9F4E70025F2E72800FEBD4160020084
:10AB500008B4024B9C46043808BC6047C961020037
:10AB6000F0B587B001930EAB1B88060003930D9BD5
:10AB70000D000093019B02920C9F002B3DD0002FF3
:10AB800002D1009BDB0738D52820FEF7B9F9040075
:10AB900010300AF037FD6B461B8925806380182032
:10ABA000FEF7AEF90500009B08220593019B0021EA
:10ABB00003600C3004970EF014F9082204A9281D34
:10ABC0000EF0F3F80E4B02226B6100230399E36051
:10ABD0002362636233680A43A560A2805B68210038
:10ABE00030009847002806D020000AF030FC2000F2
:10ABF000FEF7A6F9034807B0F0BD0348FBE7C046DF
:10AC00000362020016FCFFFF17FCFFFFF0B5040013
:10AC1000160000258380164A164B8571026021813B
:10AC200046810573186889B08C46A8421DD0124A27
:10AC300005950492C02202926A4604AB82CB82C27E
:10AC400023002A006146FFF78BFFC022094B0A4907
:10AC5000186802926A46069106AB079582CB82C2BB
:10AC600023002A003100FFF77BFF200009B0F0BD70
:10AC70001C920200C82600202D63020030B500247B
:10AC800003730123034D84710560818082734373D4
:10AC9000846030BD3492020070B5040000250C4B76
:10ACA0000E000833858085710360210018300BF099
:10ACB000F5FB2000210020300BF013FC054BA68093
:10ACC000E5802572E5602561656120001C6070BD2E
:10ACD00044920200D42600208379DB0702D5C160AC
:10ACE000002070470048FCE716FCFFFF8379DB0774
:10ACF00001D5C06870470148FCE7C04616FCFFFF5D
:10AD000070B545690400002D22D0037A032B21D8A9
:10AD1000FFF7ECFFA8622C20FEF7F2F82C220021AE
:10AD200005000EF05EF8002263695A6223699342BF
:10AD300008D1636923610020237A6561013323729E
:10AD400070BD13005A6A002AFBD162695A62F2E7A9
:10AD50000148F5E70148F3E717FCFFFF13FCFFFF8D
:10AD6000144B70B55A68144C002A03D000225A6064
:10AD70000132A2601A69002A17D0002119618023CC
:10AD8000DB000E4DE3582868012B0FD1A923DB000F
:10AD9000E1584942FFF7A0FF2868FFF7B1FF2B6891
:10ADA0005A69074BE2500123A36070BDFFF794FF7F
:10ADB000F9E7C046FC10004000100040D4260020F7
:10ADC0000405000003000069002809D00221054A9B
:10ADD000D167426A1A611A7A013A1A72024B1960F3
:10ADE0007047C04604E100E000E100E010B5002932
:10ADF00003DB024B19600DF0A5FD10BDD826002025
:10AE000070B504001E0004AB1D7804F0C7FB2000E1
:10AE10000E4B40302360FEF7B9F9230001364C3366
:10AE2000013522001E701D730023E1214E32A36400
:10AE30006365138053809381D381013B2000636459
:10AE40004902FFF7D3FF200070BDC0467890020092
:10AE5000F7B580277F053D697C690822113C6C436A
:10AE60000600210068460DF0A0FF104B009A9A42A0
:10AE700019D0009300230193796930001339694395
:10AE80000BF044FB019A009930000BF057FB2100B6
:10AE900030000BF03BFB7969AB08133969432200A2
:10AEA00030000BF03DFB0198FEBDC046FECA00001D
:10AEB000F0B50D00A9B00D9200213022060010A8B7
:10AEC0000B930DF08EFF28000DF0CBFF431C0C936D
:10AED000102B00D9B5E00B9B202B00D9B1E0290045
:10AEE00030000BF058FB071E50D129000C9A10A817
:10AEF0000DF05BFF0D990B9A14A80DF056FF8023FF
:10AF00005B051A695F690C92113F7A4330005D69F5
:10AF10000B92FFF79DFF3022002104001CA80DF0CA
:10AF200060FF290000270C9B1339594330000BF0B8
:10AF3000EDFA0D9730257D430B9B0833ED18A742A2
:10AF400042DA290030221CA80DF02FFF10A91CA8FE
:10AF50000DF07DFF002827D13C49300022000E91E2
:10AF60000F940BF0EBFA6A46099513AB23CB23C27F
:10AF700023CB23C223CB23C23000129B1099119AFA
:10AF80000BF0EAFA01230D930137D3E710300B9A47
:10AF90000D990DF0FBFE04003800FDF7D1FF002CE9
:10AFA000A3D1200029B0F0BD6A4609951FAB23CB81
:10AFB00023C223CB23C223CB23C230001C991D9A6A
:10AFC0001E9B0BF0C9FADFE7E5433023ED17254060
:10AFD0005D430B9B08355D190D9B002B1DD10C9B10
:10AFE0003021981E05F054F8A0422CD017490134A6
:10AFF000300022000E910F940BF0A0FA6A460995DA
:10B0000013AB23CB23C223CB23C223CB23C23000D9
:10B010001099119A129B0BF09FFA0B9930000BF0CC
:10B0200075FA80235B0559690C230C9A1339634325
:10B030004A430233110030000B9A0BF071FA0024DE
:10B04000AFE7034CADE7034CABE7C046FECA0000D8
:10B0500017FCFFFF13FCFFFF70B50400A280FA226B
:10B06000002308000C49920008312160A37160613F
:10B07000E260A360638209490BF08DFA051E09D0D6
:10B08000010020001031022212300DF08EFE280047
:10B09000FDF756FF200070BD5C9202007D9F02000C
:10B0A00030B50225837987B004002B4204D1FDF727
:10B0B0004DFDA3791D43A57120000BF0B6FA0028C1
:10B0C0001CD06B46DD1C28000BF0A6FA2B78002B59
:10B0D00017D001A80BF09EFA0321019AD3170B4059
:10B0E0009B189B102382FDF7D3FFE368A1881818F3
:10B0F0000123A0601A0002A80AF08EFA002007B00F
:10B1000030BD0122064B1A60064A51680029FCD066
:10B1100000215160044A1268019201225A60DBE763
:10B1200000C00040FCC0004008C50040022802D119
:10B130000122014B1A707047C229002070B5064CDD
:10B1400005002378002B04D1044801F067FE012399
:10B150002370280070BDC046C32900202DB1010016
:10B1600070B50C000AF077F8002810D00023144DB9
:10B17000A40A2B7020000BF06CFA002803D00A20E0
:10B180000DF0E7FCF6E72B78002BFCD070BD022118
:10B190000C4B0D4A99508021C90008005D58002DC4
:10B1A000FCD0A121C9005C5019580029FCD0002115
:10B1B00099508021C9005A58002AFCD0E6E7C046C1
:10B1C000C229002000E0014004050000F8B50C0091
:10B1D00015001E000AF03FF8002811D00023174F79
:10B1E0003B703200290020000BF031FA002803D018
:10B1F0000A200DF0AEFCF4E73B78002BFCD0F8BD44
:10B2000001210F480F4B844619508021C9005A581C
:10B21000002AFCD080270022FF00964207DD910023
:10B2200068586050D9590029FCD00132F5E7002256
:10B2300061465A50DA59002AFCD0E0E7C2290020C2
:10B240000405000000E0014010B50400054B083380
:10B2500003601C300AF045F9200018300AF041F96B
:10B26000200010BD74920200FF23F0B52C4D8DB06C
:10B270002B700023040069460088009303F068F9EE
:10B28000002802D16B469B782B70264E3368DB6812
:10B29000002B07D1002320881A0019000BF0DDF9DC
:10B2A0000DB0F0BD2B78032BF4D81F4901A8FDF792
:10B2B00033FF336801A9DE6804A80AF069F904A91C
:10B2C00030000BF09BF90027060004A80AF009F9EA
:10B2D000BE421ED031002022103104A80DF065FDC1
:10B2E0003000FDF72DFE297804ABC900591808225B
:10B2F00002A80DF05AFD20880123082202A90BF0B4
:10B30000ACF90137002804D12088084A0C210BF041
:10B31000A2F901A80AF0E5F8002FBBD0C0E7C046AB
:10B32000F0210020E82600208D9F0200FFFF000092
:10B33000F0B5837991B004005B071BD5FDF7A8FE3B
:10B3400000232269801A9941994203D1F423FF33E3
:10B3500098420FD9A068002808D0364B1D880CF001
:10B360001AFA036815221B6A290098470422A37958
:10B370009343A371A3799B0759D52F4D2B68DB68A5
:10B38000002B50D02D4B1B78032B4CD8294B2C492C
:10B390001B8804A80193FDF7BFFE2B6804A9DE6893
:10B3A00008A80AF0F5F808A930000BF027F9070003
:10B3B00008A80AF096F802AB9E1D082332003380DD
:10B3C00006A9073B01980BF04AF9002F08D0390075
:10B3D0002022103108A80DF0E8FC3800FDF7B0FD80
:10B3E000164B32881B7806A9DE0008AB9E19300088
:10B3F0000DF0CCFC002813D0082206A930000DF077
:10B40000D4FC2B6804A9DD6805A80AF0C1F8202344
:10B4100008AA05A928000BF0F7F805A80AF061F8BA
:10B4200004A80AF05EF80222A3799343A37111B035
:10B43000F0BDC0466C290020E8260020F021002045
:10B440008D9F0200F7B5089E0500152922D801201E
:10B4500007008F40244C27421CD0E97FCC181F2CBA
:10B4600041DC69183418A14210D80021C8B28342C7
:10B4700004D9545C701884700131F7E732789A1857
:10B480003270EA7F9B18EB7700202CE00878C854D4
:10B490000139E8E73478013CE4B2A34208D1002343
:10B4A000D9B28C42F0D9D05CF11888700133F7E73B
:10B4B000EF7F0120FF183F1B1F2F14DC0227A01C69
:10B4C0007F423618381B0190E87F2F18BE4204D205
:10B4D0003078019FF0550136F6E7041B023CEC770B
:10B4E00028000BF006F9FEBDFC002000F0B585B089
:10B4F00001930AAB1E880BAB1B78451C02930EAB65
:10B500001B78040003930B78170003704B8A1022FA
:10B510004382013128000DF048FC6B469B8826834E
:10B5200063836B461B7B002623776B4601221B7AC5
:10B530006761E683EB77A31CDA770C9B0C256362CB
:10B54000230020000D9A28331A705E709E702A0026
:10B5500031002C300DF045FC2000074BE663A3635F
:10B560002A00310040300DF03CFC2000034B2665E2
:10B57000E36405B0F0BDC046756602006766020070
:10B5800070B50D000CF007F904000368002D09D117
:10B590005B699847FA2080006843074904F078FD0A
:10B5A000E08070BD9B6898478542F3D223682000F5
:10B5B0009B6898470500EDE771020000F0B50700B1
:10B5C0001600A1B002C704006B4918A81D000BF0BB
:10B5D000D7F8331E03D030000DF043FC83B20122B4
:10B5E00004920022039202920232019200933200EE
:10B5F00018A93800FFF77AFF23006049583318A8CC
:10B6000007930BF0BDF82B1E03D028000DF029FC8A
:10B6100083B201220492002203920292023201922A
:10B6200000932A0018A90798FFF760FF23005449E8
:10B63000AC3318A808930BF0A3F8269B002B03D07B
:10B6400018000DF00EFC83B2012204920022039236
:10B650000292023201920093269A18A90898FFF7E5
:10B6600045FF631CFF33474918A809930BF088F87E
:10B67000279B002B03D018000DF0F3FB83B20122AF
:10B6800004920022601C0392029202320192009303
:10B69000279A18A9FF30FFF729FF23005533FF33FE
:10B6A000394918A809930BF06BF8289B002B03D09D
:10B6B00018000DF0D6FB83B20122049200220392FF
:10B6C0000292023201920093289A18A90998FFF772
:10B6D0000DFF2300A933FF332C4918A80A930BF060
:10B6E0004FF8299B002B03D018000DF0BAFB83B252
:10B6F00001220492002218AD0392029202320192BA
:10B700000093299A29000A98FFF7F0FE204B1B7836
:10B710000B93002B2DD1079B12971393089B0DAF12
:10B720001493631CFF331593099B1A4916930A9BC4
:10B73000380017930BF024F81D2149203B78102284
:10B740002B707B8A12AE6B8206ABC918C0180DF045
:10B750002CFB06232B756B469B8D2068AB83AE615B
:10B760000CF01DF8036829001B6898470122084B5C
:10B770001A70200021B0F0BD292A0000242A000000
:10B78000252A0000272A0000262A0000282A000077
:10B79000C42900200A18000070B5002504000A4BD7
:10B7A0008580083385710360C1601830FDF7EEFCB9
:10B7B00020001C30FDF7EAFC044BA5601C6001234F
:10B7C00065612000A37170BD74920200E82600201C
:10B7D000FA2130B585B005000123022289006846B0
:10B7E00009F01AFF074C2068002809D00BF001F877
:10B7F0002988054B22681980022391790B439371A4
:10B8000005B030BDE82600206C29002010B50C00E2
:10B8100007290DD880680BF0BEFF064B1957036847
:10B820005B6C9847431E9841034B4042184010BD43
:10B830000248FCE7859F020016FCFFFF17FCFFFF94
:10B84000F0B5A44C0D00A544040007939AAB1B78F7
:10B85000A14909A804930692FDF75EFC2000290087
:10B860001C3009F09DFEC020800001F0CDFA0820B8
:10B87000FDF746FB0600002100F088FE15ADA6602E
:10B8800000210C220EA80DF0ACFA2B000EAA83CAE0
:10B8900083C3924B2900EB60002330002B610BF037
:10B8A00063FFA0680BF077FF08220021059016A81F
:10B8B0000DF097FA1420FDF723FB29000200884BB6
:10B8C0001593C8C9C8C2874B059EC3600023A43620
:10B8D00003613368002B00D0F5E03060A0680BF006
:10B8E0005EFF08220021060016A80DF07AFA142047
:10B8F000FDF706FB7C4B1593030086CD86C37B4B7F
:10B90000C36000230361336B002B00D0DDE03063A4
:10B91000A0680BF040FF08220021050016A80DF0DA
:10B9200060FA1420FDF7ECFA714B15AE1593030085
:10B9300086CE86C36F4B9835C360002303612B68A6
:10B94000002B00D0C3E02860012504AB1B7C04AAB7
:10B950002B4308A9280013740AF083FEA0680BF09B
:10B9600022FF036864495B6A9847A0680BF01BFFDD
:10B97000036862499B699847A0680BF014FF002395
:10B9800002680093166804992A00B047049B002BB4
:10B990000AD020000AF036FF032805DDA0680BF06E
:10B9A00002FF0368DB6898470EA80AF099FE2F2073
:10B9B00004ABC0180AF094FE362004ABC0180AF09D
:10B9C0008FFE3D20042504ABC0180AF089FE0EABA3
:10B9D0000A93A06804AB5D770BF0E5FE03680AA943
:10B9E0001B699847A0680BF0D6FE03680AA95B6D37
:10B9F0009847A0680BF0CFFE03680021DB6D9847E5
:10BA0000A0680BF0C8FE036802219B6D98470021D7
:10BA10002000FFF7FBFE1820FDF772FAA16800F086
:10BA200005FA374B374A1B68A1680393364B15A8B4
:10BA30001B6800260293354B0CAF1B680193069BD5
:10BA40001B685B190093324B12681B68FFF7B6FD49
:10BA50003020FDF755FA079AA16800F0A7FAA06810
:10BA60000BF099FE036839009B6A9847294BBE800A
:10BA7000A0680C930BF08FFE03683900DB6A9847CF
:10BA80002900A0680AF088FE099A09219378A06825
:10BA900052190AF094FEA0680BF07DFEC8210671D1
:10BAA000A068FFF76DFD04AB1B7FB34204D0A06814
:10BAB0000BF071FE0AF05AFE09A809F012FD952359
:10BAC0009B009D44F0BD036107E703611FE703612D
:10BAD00039E7C046ACFDFFFF80A00200836602008C
:10BAE000D1B701009166020069B201009F660200B1
:10BAF000CD660200AD66020019BB01004DBB01001E
:10BB0000E4260020E026002008200020DC2600207B
:10BB10000C2000200800100013B506226846FDF72F
:10BB20000BFB094B1C68002C0AD0694601A809F0E0
:10BB30002FFD200001A90AF086FE01A809F0D1FC22
:10BB4000684609F0CEFC13BDE8260020002373B53B
:10BB500001AE0C0031000500019302F0F9FC002851
:10BB600002D1B278064B1A70064B1868002806D02E
:10BB700061426141044BC9B21D800AF06CFE73BD85
:10BB8000F0210020E82600206C290020F0B50400F8
:10BB900097B0039107A89C490592FDF7BDFA9B4910
:10BBA00008A8FDF7B9FA22000FAD28001C3207A93A
:10BBB00009F005FD08AA290009A809F000FD2800E0
:10BBC00009F08FFC92490AA8FDF7A6FAA0680BF0CD
:10BBD000E2FD03680DAE5B69984728000AF080FD1E
:10BBE000332004ABC0180AF07BFD3A2004ABC01828
:10BBF0000AF076FD412004ABC0180AF071FD8023E5
:10BC0000DB00B380A0680D950BF0C5FD0368310023
:10BC10005B6D9847A0680BF0BEFD036800219B6D2B
:10BC20009847A0680BF0B7FD0700002506000A370B
:10BC30001F22002138000DF0D4F8FD7730000AF003
:10BC40008CFD0621A0680AF0A7FD099A09219378C6
:10BC5000A06804320AF0B3FDA0680BF09CFDC82177
:10BC60000571A068FFF78CFCA0680BF094FDFF271E
:10BC70002E000581A0680BF08EFD0AF077FD039879
:10BC8000FEF7B8FC0AA90CA809F082FC78220CA9DE
:10BC90000398FEF777FD0CA809F023FC0399200018
:10BCA0000AF0ECFD2000FCF751FF049501256369C3
:10BCB0001D402DD057490BA8FDF708FB0BA90CA878
:10BCC00009F0DAFC00220CA91300019200920398FB
:10BCD000FEF7FCFC0CA809F0C2FC049B002B42D12F
:10BCE000043F282F41DD0025FE2F00DC049D059830
:10BCF00009F0E0FE002806D0012362699A43130090
:10BD000004221343636100260BA809F0A8FC0495E4
:10BD100004226369134233D0FF210398C826FEF73B
:10BD200057FD0025B600A36902229B5EAB4222DDCF
:10BD3000200029B2183009F058FC002301000398B4
:10BD40001A007430FDF712FB3000FCF797FF0398E0
:10BD50000AF0CDF8C820FCF791FF02226369134274
:10BD600009D10135DFE70437BBE703980AF0BFF8D4
:10BD7000002FBCDDBAE7FA208000FCF77FFF002629
:10BD8000022365691D421CD006331D4024D0224980
:10BD90000BA8FDF79BFA0BA90CA809F06DFC00227B
:10BDA0000CA90192009213000398FEF78FFC0CA8D7
:10BDB00009F055FC1948FCF761FF0BA809F04FFC8E
:10BDC000174E6420FCF75AFF164B01369E4200DCEA
:10BDD0006CE709F052FA69E713490BA8FDF776FA08
:10BDE0000BA90CA809F048FC2B002A000CA901950E
:10BDF00000950398FEF76AFC0CA809F030FC0BA82C
:10BE000009F02DFCDDE7C046999F0200A99F0200C2
:10BE1000AB9F0200B99F0200FE9F0200983A00000B
:10BE20008C0A00008B0A00003BA002000022594B44
:10BE3000F0B50833060003600F001000A9B0B16030
:10BE40000BAB991801324870102AFAD10F3A524CB4
:10BE50001A700E32105D991A0874013AFAD2997B61
:10BE60005A7B09020A4331000C31039125211B78CA
:10BE700013AD2B7002ABC918452302A81B186A82A8
:10BE8000180010220CF091FF039B64216B610123C9
:10BE9000002402AA2B7752181993093313701DAB93
:10BEA0001C706D2302AA9B181C706E2321009B1826
:10BEB0001EA80C22EC836C621C700CF092FF374BB6
:10BEC0000C22210023A8AB63EC630CF08AFF344BF7
:10BED00002AAEB6446239B180322DA7722002C6522
:10BEE0000595347306AD2B1901345A70102CFAD114
:10BEF00001232C482B700E33195CEA1A1174013B94
:10BF0000FAD211212520AA7B6B7B12020BAC1343C2
:10BF10002A78638202ABC9182270C01810220CF074
:10BF200044FF0123237505ABA36100233800A383DD
:10BF30000BF035FC036821001B68984713ABDB8BC3
:10BF4000B068B3820BF02BFC002203680092B18A28
:10BF5000039ADC680123A047B0680BF020FC0700BF
:10BF60001420FCF7CDFF0022012304000261069299
:10BF700040C00832290007930CF017FF0A4BE3601A
:10BF8000BB69002B03D13000BC6129B0F0BD236137
:10BF9000F9E7C0468C92020098A002007566020084
:10BFA00067660200A8A00200DD680200F0B5002666
:10BFB0000400734BDDB0083303608160C26086808B
:10BFC000867132006F4947A80AF028FD2300143318
:10BFD0000125042708931223009704950193089ADA
:10BFE000330047A9039602961DA8FFF77FFA320097
:10BFF000654947A80AF012FD082022000097330087
:10C0000015AF10320495019047A90396029632A805
:10C01000FFF76CFA32005D4938000AF0FFFC23009C
:10C02000082004221C330993390033000495019041
:10C0300000920396099A029647A8FFF757FA320032
:10C04000534938000AF0EAFC5420FCF759FF050078
:10C05000200001231221042218300790049301913B
:10C060000092390002003300280003960296FFF781
:10C070003DFA2800474BA5620822EC620AA930303D
:10C080000A930B960CF091FE434B0422AB63012301
:10C0900029352B7009992661E66107980CF085FE19
:10C0A0000422079908980CF080FE6621032304AA55
:10C0B0008918CB77BA2104AA8918CB77872104AADB
:10C0C00049008918A26ACB77911CA685CB771DAB56
:10C0D0000C9332AB0D930F9247AB32002F4910A84F
:10C0E0000E930AF09BFC3021452004AB5B181B78B3
:10C0F00012313B7004AB5B181B8811397B8204AB97
:10C10000C918C01810220CF050FE04220CADA06813
:10C110003A75BD61BE830BF042FB036839001B68B2
:10C120009847822204AB9B181B885432238404ABAB
:10C130009B181B885432A38404AB9B181B88A068EF
:10C1400063840BF02CFB07001420FCF7D9FE0500DC
:10C15000134B066108221093119610A910C00CF021
:10C1600024FE104BEB60BB69B34206D1BD612000D9
:10C17000FCF7ECFC20005DB0F0BD2B61F6E7C0469B
:10C1800098920200D8A00200B8A00200C8A0020045
:10C19000E8A00200EF6902005B690200F8A002005B
:10C1A00011C2010085690200F0B504000E001500FF
:10C1B00085B01F000CAB1B881030019309F022FAE8
:10C1C000268065801820FCF79BFE02AE0500330038
:10C1D0000AAA03CA03C32F602800082700213A00D7
:10C1E0000C300CF0FEFD3A003100281D0CF0DDFD96
:10C1F000064B02226B61200000230199A5600A43CF
:10C20000E360A2802362636205B0F0BDAF69020003
:10C21000F0B50B898DB00593CB68060004934B886D
:10C22000828C9A420ED1049C049B059A9B181B1B7E
:10C23000032B3BDD62882188012308A809F0ECF973
:10C240000434F1E7428C9A4230D1049C049B059A55
:10C250009B181B1B032B29DD23882820069363884A
:10C26000F7680793124B089300230993FCF748FEE5
:10C27000C0236A460500029308AB03CB03C2330018
:10C280000699079A2800FFF78FFF3B6829005B6833
:10C2900038009847002807D0002D05D0280009F065
:10C2A000D6F82800FCF74CFE0434CFE70DB0F0BD03
:10C2B0006D6A020070B5040090B080680AF0D1FB8E
:10C2C000022101401AD1A38D002B17D00C4B6A46D6
:10C2D00004931023E568A1850591029304AB41CB3B
:10C2E00041C20A00230006A8FFF75EFF2B6806A9DB
:10C2F0009B682800984706A809F0A9F810B070BDFF
:10C300006D6A0200002815D0006041608260C36041
:10C31000046145618661C761444604624C464462DB
:10C32000544684625C46C462644604636E46466357
:10C3300074468463002A06D0C46B043C043A256822
:10C340001560B442F9D18C6BA6464E6BB546002BF6
:10C3500006D0CC6B043C043B1D682560B442F9D187
:10C360000C6BA446CC6AA3468C6AA2464C6AA146D2
:10C370000C6AA046CF698E694D690C69CB688A68E2
:10C38000086849687047006041608260C36004616A
:10C3900045618661C761444604624C464462544626
:10C3A00084625C46C462644604636E4646637446B7
:10C3B0008463C46B043C043925680D60B442F9D130
:10C3C000C769866945690469704700604160826099
:10C3D000C360046145618661C761444604624C469E
:10C3E0004462544684625C46C462644604636C469C
:10C3F00044637446846304697047846BA646446B47
:10C40000A546046BA446C46AA346846AA246446A4D
:10C41000A146046AA046C769866945690469C3687C
:10C42000826800684168704710B5041E0CD00CF09B
:10C4300018FD431EE3189C4208D222781978013B6C
:10C4400021705A700134F6E7014810BD0020FCE766
:10C4500017FCFFFFF0B585B002900C1E2AD0002318
:10C46000C217161A56400193019B30005D1C6319D8
:10C470000A215F1E039303F07BFF4942303139707C
:10C4800030000A2103F08EFE47420600002F0FD134
:10C49000029B002B04DA2D23019D039A02351370B1
:10C4A000002320006355FFF7BFFF380005B0F0BD43
:10C4B0000195D9E7004FF8E717FCFFFF10B5826040
:10C4C0004A4304004160002A0ADD074B90009A426B
:10C4D00001DD01204042FCF713FD2060200010BD6B
:10C4E00000230360FAE7C046FEFFFF1F4A688B681F
:10C4F00070B58360534304000D004260002B12DDD1
:10C500000A4A9E003000934201DD01204042FCF7C0
:10C51000F7FC002320602A68D158C15004339E42A2
:10C52000FAD1200070BD00230360FAE7FEFFFF1F71
:10C5300070B5002817D1114D2E68002E11D108308A
:10C540000CF0FAFB066046600D4E04003368002BC9
:10C5500002D10BF05BFB306023682C609B00F3582A
:10C560006360286870BD0122064907480B681340C4
:10C57000F8D1026043600A60F4E7C046F02600206C
:10C58000FC260020EC260020F4260020002370B5B5
:10C5900004000160436099420AD1064D2B68002BCC
:10C5A00002D10BF033FB286023689B00EB586360DB
:10C5B000200070BDFC260020436810B50400002B4D
:10C5C00002D104480CF0CCFA606803681B699847F4
:10C5D00010BDC04608A10200436810B50400002B3E
:10C5E00002D104480CF0BCFA606803689B69984764
:10C5F00010BDC04608A10200436810B50400002B1E
:10C6000002D104480CF0ACFA606803685B6A984792
:10C6100010BDC04608A1020000487047FFFF00009F
:10C62000F0B597B00593036807AD1B6804910393B9
:10C6300011002B00060091C991C30024D36821008A
:10C640000C220CA8EB602C610CF0CBFB22000B4BF6
:10C6500010940F9311AB1C70191901344A70102CEF
:10C66000FAD15A820193059B2A00009304990CABDE
:10C670003000039CA04717B0F0BDC046C57802004B
:10C6800070B5FC30046C0500002C0DD124200CF09A
:10C6900053FB064B44608361054B8460C4600461B6
:10C6A0004461C46103602864286C70BD84930200F7
:10C6B0006C94020070B5FC30C56B0400002D11D1E4
:10C6C00034200CF039FB084B85604360074B456113
:10C6D0000361074B0562C361064BC5628362064B6B
:10C6E000E0630360E06B70BDB4930200A4930200AA
:10C6F0001494020024940200349402007FB503795C
:10C700001548002B22D0154E154C33782000002BF5
:10C710001CD102AD28000BF0B2F8002810D16B88B4
:10C72000592B0DD12B78AA88D91F012910D8009236
:10C730000C4A2021200008F061F80123337004E046
:10C740002022094920000CF093FB200004B070BDAA
:10C750000092064AEDE7C0462BA10200E529002021
:10C76000C52900204DA1020045A102006AA10200D6
:10C7700010B50400024B08C00BF061F9200010BD99
:10C78000A493020010B50400024B08C00BF06CF932
:10C79000200010BDB4930200064B70B50400036086
:10C7A0004068002804D005690CF0C2FA2800F8E7B8
:10C7B000200070BD94930200064B70B50400036026
:10C7C0004068002804D005690CF0B2FA2800F8E7A8
:10C7D000200070BDC4930200064B70B504000360D6
:10C7E0004068002804D005690CF0A2FA2800F8E798
:10C7F000200070BDD4930200064B70B504000360A6
:10C800004068002804D005690CF092FA2800F8E787
:10C81000200070BD14940200064B70B50400036044
:10C820004068002804D005690CF082FA2800F8E777
:10C83000200070BD24940200064B70B50400036014
:10C840004068002804D005690CF072FA2800F8E767
:10C85000200070BDB8920200064B70B50400036062
:10C860004068002804D005690CF062FA2800F8E757
:10C87000200070BDC8920200064B70B50400036032
:10C880004068002804D005690CF052FA2800F8E747
:10C89000200070BDD8920200064B70B50400036002
:10C8A0004068002804D005690CF042FA2800F8E737
:10C8B000200070BDE8920200064B70B504000360D2
:10C8C0004068002804D005690CF032FA2800F8E727
:10C8D000200070BD8493020070B5FC30046C05002C
:10C8E000002C0DD124200CF027FA064B4460836104
:10C8F000054B8460C46004614461C46103602864C2
:10C90000286C70BD849302006C940200104B10B52B
:10C91000083303600F4B0400C36080230E4A5B00A2
:10C92000C250C018FDF73CFD20000C4BB830E3604E
:10C93000FFF7B2FF2000AC30FFF79EFF2000A030D1
:10C94000FFF78AFF20006C30FFF776FF200010BD54
:10C9500098940200E09402004C960200F8920200C3
:10C96000F8B505000400AC356B68AB60A86800281A
:10C9700007D0C36821009847AB68002BF4D01B692F
:10C98000F3E72500B0352868002804D006690CF0CC
:10C99000CFF93000F8E72200FC21286058321378E4
:10C9A0000B40137023005C33187020000A300BF02A
:10C9B00024F9200034300BF020F9606E002804D0F8
:10C9C00005690CF0B5F92800F8E725009835606690
:10C9D0002868002804D006690CF0AAF93000F8E7AE
:10C9E0002600A43628603568002D05D02F69280060
:10C9F0000CF09EF93D00F7E72000356029000C227D
:10CA00006C300CF0EEF92000074BE567A3672900B6
:10CA10000C2280300CF0E5F92300044A8C3390346A
:10CA200028001A602560F8BDA97802009B780200F2
:10CA3000444AF0B50600C260A022434B16360833C4
:10CA400003600100002342820400320085B00371BC
:10CA50008360037483823531137001329142FBD1BC
:10CA6000802580222000AD00D201F37735841100AB
:10CA700000933830002300F039FF230021004033B9
:10CA800003931A002B0000255F31157001328A4292
:10CA9000FBD1039AFC21D5772200603213801379F1
:10CAA00020000B401371230068331D70274B25674E
:10CAB000E3660C22002178300CF093F92300270064
:10CAC00088331D60224B0837FB67843700210C2216
:10CAD00038000CF086F91F4B1F4AFB602300A0337F
:10CAE0003D611A601D4A5D60DA601D4A1D619A61F0
:10CAF000DD6130000BF081F803980BF07EF8194BE4
:10CB0000601CE3602300C4331D705D709D70FF30B6
:10CB100002F0FCFC8C235B00E55023001933FF334B
:10CB20005D618023104A5B00E25023000122200057
:10CB3000FE3352425A86023B9D63DD631D6405B09D
:10CB4000F0BDC046F892020098940200B89202002C
:10CB5000A97802009B780200C8920200D8920200D5
:10CB6000E8920200E09402004C96020070B5074C77
:10CB70002368002B07D1A02040000CF0DDF8050051
:10CB8000FFF756FF2560206870BDC04600270020D3
:10CB900070B50C220D00002104000CF022F90023D6
:10CBA0002361024B25602000E36070BDB77802006E
:10CBB00070B500250400254B85800360244BC560BB
:10CBC0008360244B85614361234B45620362234BA1
:10CBD0000563C362224BC563836329004430FFF7BA
:10CBE000D7FF200029005830FFF7D2FF200029008E
:10CBF0006C30FFF7CDFF1B4B2200236023008032F7
:10CC0000F83320C29342FCD126001D00E936FF36DE
:10CC100028000822002108350CF0E3F8AE42F7D1D5
:10CC20008E2300229B00E11804C6B142FCD18E2362
:10CC300000219B00E2540C4B0C4AE318A218198007
:10CC400002339A42FBD1200070BDC046E49302003B
:10CC500094930200A4930200B4930200C4930200D0
:10CC6000D49302006C9502003A02000062020000B8
:10CC700010B5040002F03EF8034B1B68002B01D0F6
:10CC80002000984710BDC04608270020F0B58BB0A3
:10CC9000050001F09DFA0020FFF768FF0368070018
:10CCA0001B6998473B6804009B69380098473B68BC
:10CCB00006005B6A380098470300288810380B2864
:10CCC00062D803F0DBF9063E6161615B6161616717
:10CCD0006179AF88200039000BF0C8F922006B7B26
:10CCE000583201931378A8799C46022361460B437E
:10CCF000137004AB1F80012304AA9370D07013003B
:10CD00006A461279E91D9A722B000622163305A88D
:10CD100009930CF04AF829000B2004AB06220E31CF
:10CD2000C0180CF042F894346368A360A06800282F
:10CD30002AD0C36804A99847A368002BF4D01B69C4
:10CD4000F3E720002F49AF880BF090F92200022072
:10CD500058321378A9798343137004AB1F809970FC
:10CD6000A0346368A360A06800280DD0C36804A93C
:10CD70009847A368002BF4D01B69F3E75B69A88888
:10CD8000A91D002B00D09847290030000BF048FA6D
:10CD90000BB0F0BD636E002BF6D0AF79A366A06E2A
:10CDA0000028F1D0C36839009847A36E002B01D149
:10CDB000636EF3E71B69F1E7012269460D27AB7B40
:10CDC000EF571A4001925A07920FDB080A720B7351
:10CDD0000622E91D04A80BF0E8FF6A46127904ABAD
:10CDE000DA716A46127A9F711A726A46127B2000C3
:10CDF0005A722B000F3307938C348030236804A9B8
:10CE00009847C1E7FFFF00000723D72802D9024B4C
:10CE1000186000231800704704270020014B186099
:10CE20007047C046082700201FB58022A323D205E3
:10CE3000DB00D3580820DB0700D405301C4B482208
:10CE40001C4902F0ABF900280AD080B2002807D1B3
:10CE5000BFF34F8F184B194ADA60BFF34F8FFEE7CD
:10CE6000002302A8029301330370154B1B68436033
:10CE70000AF052FF002802D0072005B000BD684626
:10CE80000AF048FF0028F7D169460AF041FF002860
:10CE9000F2D10C4802F0B2F980B20028EDD10A4874
:10CEA00002F0B6F980B20028E7D100F01FF8E4E7FD
:10CEB0001D7D02000C27002000ED00E00400FA05B3
:10CEC000042700208DCC010071CC010080B2002825
:10CED00007D1BFF34F8F034B034ADA60BFF34F8F85
:10CEE000FEE7704700ED00E00400FA051FB50023DF
:10CEF00002ACA380104B01A80293C8235B00E3801F
:10CF0000803BFF3B037005220C490AF013FF80B2FF
:10CF100000280FD1802080000AF008FF80B200288E
:10CF200008D120000AF004FF80B2002802D10AF0E4
:10CF3000FBFE80B204B010BD280090018FA102005A
:10CF400070B500200D00FFF711FE03685B6A98477B
:10CF50002B780400142B1ED003D8132B0CD00020E8
:10CF600070BD152B1FD0222BF9D16B68188823694F
:10CF7000002BF4D09847F2E76B68012518889B785E
:10CF8000646819005A08DB0629402A405B0F002C10
:10CF9000E5D0A047E3E76B6818889978A368002B71
:10CFA000DDD09847DBE76868827813091207120F13
:10CFB000012A03D0022A0BD0002106E0013BDBB29C
:10CFC0000021022B01D8064AD15C0088E368E6E71D
:10CFD0000421012BF9D00131022BF6D0ECE7C04639
:10CFE00095A10200014B18787047C046E629002041
:10CFF000F0B51D000023304F87B000923A7806004C
:10D000000C009A4204D101F0A9FE002803D00B23A2
:10D01000180007B0F0BD002D0ED003A92220039503
:10D020000AF08CFE002807D006230828F0D011381B
:10D03000434243410433EBE7002302AA100013707C
:10D0400000F080FE0028E2D101251C4902220B7865
:10D050002E40AB433343072693430193009B2C4060
:10D0600033409340AC409C46019B02AA1C431C23C6
:10D070009C4363461C430E239B181880104B0C7076
:10D080000393022303AC2371093002AB0522C018BD
:10D090000BF08BFE21000B4800F0BEFE002807D0ED
:10D0A00033000428B4D0013B0828B1D00533AFE7E2
:10D0B0003D700300ACE7C046E6290020F1210020C6
:10D0C00041CF0100E729002010B5074800F07CFFA0
:10D0D0000023984206D00733042803D0013B0828D8
:10D0E00000D00533180010BDE7290020002373B5D8
:10D0F00001930F4B01AD1B780E0029002B7001F03E
:10D1000027FA041E05D00423052800D00733180091
:10D1100076BD3100280000F0B9FE23000028F6D0CB
:10D1200007230428F3D0013B0828F0D00533EEE7AD
:10D13000E729002073B5114C0E00050005222100DF
:10D1400068460BF032FE012E03D0022E10D00223CF
:10D150000CE002222378B3439343694628002370EE
:10D160000AF0EAFD0023984200D00B33180076BD88
:10D17000012322781343B343EFE7C046F121002097
:10D18000094B10B51A7801000923002A09D0074875
:10D1900000F0B4FE0023984203D003330E2800D0E1
:10D1A0000333180010BDC046E6290020E7290020FF
:10D1B000024B0B60092313607047C04698A1020020
:10D1C00010B504000020FFF7D1FC03681B699847E5
:10D1D0000300F3331C7086235B00C0500300002162
:10D1E000044AFC335A61044A99615A62F4300BF0E4
:10D1F00033FB10BD297F02003B7F0200012110B5E7
:10D20000044A080002F030F80023984200D00B33A3
:10D21000180010BDC1D10100F0B593B001900020FD
:10D220000C00FFF7A3FC03685B6A9847FFF7DAFE80
:10D2300006AB00280ED000221A7105AA0692082219
:10D2400018001A730AAA9A60FFF79AFF002803D001
:10D2500013B0F0BD18711873002727732771019B55
:10D26000BA331B78BB4242D907237B431A0001998A
:10D27000BB32CB18BB331B788A180292022B2ED1FB
:10D28000002506AE337BAB4223D9AB000393089B4A
:10D29000AA00995802980AF053FD00281CD0B368E0
:10D2A0009C46AB001900237B614402939A000868F6
:10D2B000A368D050029B01332373337B5A1E9542DF
:10D2C00005D00C481B1860469B001B580B6006AB32
:10D2D0001A730137FFB2C2E70135EDB2D1E7237906
:10D2E000216802989A00013350502371F1E7002021
:10D2F000AEE7C046FFFFFF3FF0B50A7804009BB0E1
:10D300000D000220012A08D04B88032A07D1A03B38
:10D3100021499BB210008B4207D91BB0F0BD203BC6
:10D320001E4A9BB203209342F7D81D4BAA880320C4
:10D330009A42F2D80AAB009312AB02936A460023DA
:10D34000260013711373B8363378002B1DD104AF48
:10D350001822002138000BF044FD2B7838003B7078
:10D3600033783B726B46FB606B883B82AB887B8279
:10D370000AF0FEFC02000320002ACED1012358341B
:10D38000217810000B432370C7E769462000FFF7A0
:10D3900043FF0028DBD0C0E7603F0000E03F000013
:10D3A000FF3F0000F0B59DB01E006B4604001A70F0
:10D3B000581C0622229D0BF0F8FC002E2ED032883D
:10D3C00002AB1A8072885A80B2889A80F288DA801A
:10D3D0000CAB04AE049314ABB36027000023B93741
:10D3E000337133733B78002B1ED101223B78022727
:10D3F00008A9134058000B784E60BB430343002D2F
:10D400001AD12000323000789343104003430B7050
:10D41000A38D0B81E38D4B81238E17E01A4B029372
:10D4200096239B040393D3E731002000FFF7F4FE1B
:10D430000028DAD01DB0F0BDA87993431040034313
:10D440000B702B880B816B884B81AB8802AA6846D6
:10D450008B810AF0A3FC030000208342EAD006304F
:10D46000082BE7D006D80130042BE3D0834209D142
:10D470000420DFE70520112BDCD0044A9342F7D0CB
:10D48000102BF5D00B20D5E73200640002320000EB
:10D4900013B504680093A46813000A000149A0476B
:10D4A00016BDC046FFFF000037B506AC25780468FE
:10D4B00001950093246913000A000149A0473EBD6D
:10D4C000FFFF0000F0B587B00D00002469466F46ED
:10D4D00016004C800DAA0CA9098812783980019396
:10D4E000A2421BD101004479F83194420DD9083190
:10D4F0000F00083F3F88B7421BD1302120329200F5
:10D5000012580132D27F0A4215D16A4631002800F2
:10D510000AF0B4FD002808D1062407E06A4631006D
:10D5200028000AF0ABFD002800D00324200007B03B
:10D53000F0BD0132D9E710210A4051424A41002092
:10D5400002ACE3600CABA360174B01322680A270E3
:10D55000A0809D4207D1FFF709FB03681B6998472C
:10D560000AF087FD0500210028000AF08BFD002449
:10D5700082B2A242DAD0112A13D00BD8082ACBD01B
:10D580006A46310028000AF079FD05240028CDD034
:10D59000023CCBE7054B9A4203D0054B9A42EFD1B0
:10D5A000BAE70524C2E7C046FFFF000003300000D1
:10D5B00001340000F0B5050099B008002E240C914C
:10D5C00000F00EF906ABE4181290220012A9012017
:10D5D0000AF052FD002802D0032019B0F0BD2388C4
:10D5E0000C9A0B9093830C9B0B9A1B7D934200D853
:10D5F000C6E06B791D2B01D90720EEE70C9B9B69D8
:10D600000D930B9B0D9A9B009C586369002B07D1CF
:10D61000638B002B04D1631CDB7F022B00D1AAE0BB
:10D62000200000F0DDF823000026283312900E962B
:10D630000D960F930F9B1B78B34221D9626AB300FA
:10D640009F58342206AB9B1800221A700023002139
:10D6500013AAD21801335170102BF8D1462206AB11
:10D660009B184A4A13A938001A800AF08AFD00283C
:10D6700003D07B690D937B8B0E930136F6B2D9E70D
:10D680006979A31C1F31C9006918621CDB7FD27F36
:10D69000089121002A3109780020079121002931C1
:10D6A000097806910E9905910D990491217F0391B6
:10D6B000218B0291618B01916169009112A90AF09D
:10D6C000E2FE002800D087E76B7907001A002032BD
:10D6D00092001F335451DB005B5BE3836B790133B2
:10D6E0006B71230028331B78BB4244D98E239B00E7
:10D6F000EB5C132B00D97FE7626ABB009E580023C6
:10D70000180013A90B70CA1801335070102BFAD1EE
:10D710001E4B30004B820AF034FD0D90002827D1BB
:10D72000300000F05DF88E2189006A5C738B1E3238
:10D73000FF325200AA180292327F12900192328B6D
:10D7400012A9009272690D9800F09AF8002800D092
:10D7500042E78E2189006A5C531CDBB26B541D3397
:10D760007A32FF3392005B005651EB185B88F383EB
:10D770000137FFB2B5E70B980130C3B20B9332E724
:10D780002B79002001332B7127E7C04601290000C7
:10D7900070B505000AF05FFA04000620002C1CD1C9
:10D7A00028007822210080300BF01BFB2800E93094
:10D7B00050222100FF300BF014FB2800082221002A
:10D7C000F8300BF00EFB054B2822E81821000BF077
:10D7D00008FB8E2320009B00EC5470BD3A02000031
:10D7E000F0B5438A85B00193037805000126002B2C
:10D7F00035D0214A00241100831900931F4B1F6864
:10D80000A74210D00023981E012804D90098D65CA6
:10D81000C05C86422CD10133102BF4D111235C4320
:10D8200009190E7C1BE000980AF016FE2B78070001
:10D830000600002B01D112350095042C0FD01125C4
:10D8400065430D4B10225D19009928000BF0ADFACD
:10D850000023AB70EB70094B01342F741C6003ABD9
:10D860009E705888019B00040343180005B0F0BD6A
:10D8700001341132C4E7C046E829002054270020B3
:10D88000F0B589B000930EAB1B8805000F001600A1
:10D89000019303220FAB002102A81C780BF0A1FA20
:10D8A00001230E201C40DB181C4302AB9C700E4B66
:10D8B00002AA138002AB06220021C0180BF091FAD5
:10D8C00003AC02AB63606B461B88109A23816B46E6
:10D8D0009B88210028000397A38126610AF0B8FDE8
:10D8E00080B209B0F0BDC04611110000F7B5FA26AC
:10D8F000B6007143009308AB1B780400080014497C
:10D900001700019302F0C4FB85B2300025807843F4
:10D910000F4902F0BDFB6B461B8880B2A3806B46AB
:10D920001B796080A371032D01D8042323808023F9
:10D930002288DB019A4200D92380032801D80422DF
:10D94000628062889A4200D963802000FEBDC04692
:10D9500071020000F0B58BB004AB9D1D0E230C22AC
:10D96000039001912B804B7823495343CB1818899E
:10D970002A00032306A90AF038FE00281ED1182722
:10D98000019B1E4C5B782E885F4300933B0008335D
:10D99000E318320006A9180002930BF0F7F90028EB
:10D9A0000FD10C22009B5343134AD318997A0223B8
:10D9B000194003D1E01918220BF013FA00200BB024
:10D9C000F0BDE01943680E4F002B00D00D4F182515
:10D9D0000322009B06A96B43E250E3185E6032000D
:10D9E00002980BF0E2F9019B2A00597803986943E9
:10D9F00038236118B847E1E76E290020802700200E
:10DA0000E5EE01005DEF0100F7B504000E006A4687
:10DA10008178204801F040FA00283AD10C2362783E
:10DA20001D4F5A431D4B9B189B7A5B0605D4022E53
:10DA300003D01B4F012E00D01A4F1C25A1781A4B82
:10DA400069432A00C91868460023B84700281ED138
:10DA5000022E1ED00C226178104B4A439B189A7AF2
:10DA60004030694382439A72104B2A005918684625
:10DA70002B00B8470C23227821005A430C4B6846F0
:10DA80009B189B7A0B4A9B009B58984701E0022EFB
:10DA9000F0D1F7BD442800205DEF01006E29002081
:10DAA000E5EE0100EF8502009C270020642700209E
:10DAB00058270020B4950200F7B51822019043784A
:10DAC00028485A4381184C68274F002C30D00C212D
:10DAD00059437918897A4DB2002D28DA490626D49F
